{
	"Maxim/BStakeSystem.sol": {
		"BStakeSystem": {
			"abi": [
				{
					"anonymous": false,
					"inputs": [
						{
							"indexed": true,
							"internalType": "address",
							"name": "previousOwner",
							"type": "address"
						},
						{
							"indexed": true,
							"internalType": "address",
							"name": "newOwner",
							"type": "address"
						}
					],
					"name": "OwnershipTransferred",
					"type": "event"
				},
				{
					"anonymous": false,
					"inputs": [
						{
							"indexed": true,
							"internalType": "address",
							"name": "user",
							"type": "address"
						},
						{
							"indexed": false,
							"internalType": "uint256",
							"name": "amount",
							"type": "uint256"
						}
					],
					"name": "StakedEvent",
					"type": "event"
				},
				{
					"anonymous": false,
					"inputs": [
						{
							"indexed": true,
							"internalType": "address",
							"name": "user",
							"type": "address"
						},
						{
							"indexed": false,
							"internalType": "uint256",
							"name": "amount",
							"type": "uint256"
						}
					],
					"name": "WithdrawEvent",
					"type": "event"
				},
				{
					"inputs": [],
					"name": "owner",
					"outputs": [
						{
							"internalType": "address",
							"name": "",
							"type": "address"
						}
					],
					"stateMutability": "view",
					"type": "function"
				},
				{
					"inputs": [],
					"name": "remainedTime",
					"outputs": [
						{
							"internalType": "uint256",
							"name": "",
							"type": "uint256"
						}
					],
					"stateMutability": "nonpayable",
					"type": "function"
				},
				{
					"inputs": [],
					"name": "renounceOwnership",
					"outputs": [],
					"stateMutability": "nonpayable",
					"type": "function"
				},
				{
					"inputs": [],
					"name": "stake",
					"outputs": [],
					"stateMutability": "payable",
					"type": "function"
				},
				{
					"inputs": [
						{
							"internalType": "uint256",
							"name": "",
							"type": "uint256"
						}
					],
					"name": "stakers",
					"outputs": [
						{
							"internalType": "uint256",
							"name": "stakedAmount",
							"type": "uint256"
						},
						{
							"internalType": "uint256",
							"name": "totalRewardAmount",
							"type": "uint256"
						},
						{
							"internalType": "uint32",
							"name": "level",
							"type": "uint32"
						},
						{
							"internalType": "uint256",
							"name": "rewardTime",
							"type": "uint256"
						}
					],
					"stateMutability": "view",
					"type": "function"
				},
				{
					"inputs": [
						{
							"internalType": "address",
							"name": "newOwner",
							"type": "address"
						}
					],
					"name": "transferOwnership",
					"outputs": [],
					"stateMutability": "nonpayable",
					"type": "function"
				},
				{
					"inputs": [
						{
							"internalType": "address",
							"name": "account",
							"type": "address"
						}
					],
					"name": "withdraw",
					"outputs": [],
					"stateMutability": "payable",
					"type": "function"
				}
			],
			"devdoc": {
				"kind": "dev",
				"methods": {
					"owner()": {
						"details": "Returns the address of the current owner."
					},
					"renounceOwnership()": {
						"details": "Leaves the contract without owner. It will not be possible to call `onlyOwner` functions anymore. Can only be called by the current owner. NOTE: Renouncing ownership will leave the contract without an owner, thereby removing any functionality that is only available to the owner."
					},
					"transferOwnership(address)": {
						"details": "Transfers ownership of the contract to a new account (`newOwner`). Can only be called by the current owner."
					}
				},
				"version": 1
			},
			"evm": {
				"assembly": "    /* \"Maxim/BStakeSystem.sol\":367:2450  contract BStakeSystem is Ownable {... */\n  mstore(0x40, 0x80)\n    /* \"Maxim/BStakeSystem.sol\":782:788  1 days */\n  0x015180\n    /* \"Maxim/BStakeSystem.sol\":759:788  uint256 cooldownTime = 1 days */\n  0x01\n  sstore\n    /* \"Maxim/BStakeSystem.sol\":367:2450  contract BStakeSystem is Ownable {... */\n  callvalue\n  dup1\n  iszero\n  tag_1\n  jumpi\n  0x00\n  dup1\n  revert\ntag_1:\n  pop\n    /* \"@openzeppelin/contracts/access/Ownable.sol\":921:953  _transferOwnership(_msgSender()) */\n  tag_4\n    /* \"@openzeppelin/contracts/access/Ownable.sol\":940:952  _msgSender() */\n  tag_5\n    /* \"@openzeppelin/contracts/access/Ownable.sol\":940:950  _msgSender */\n  shl(0x20, tag_6)\n    /* \"@openzeppelin/contracts/access/Ownable.sol\":940:952  _msgSender() */\n  0x20\n  shr\n  jump\t// in\ntag_5:\n    /* \"@openzeppelin/contracts/access/Ownable.sol\":921:939  _transferOwnership */\n  shl(0x20, tag_7)\n    /* \"@openzeppelin/contracts/access/Ownable.sol\":921:953  _transferOwnership(_msgSender()) */\n  0x20\n  shr\n  jump\t// in\ntag_4:\n    /* \"Maxim/BStakeSystem.sol\":367:2450  contract BStakeSystem is Ownable {... */\n  jump(tag_8)\n    /* \"@openzeppelin/contracts/utils/Context.sol\":640:736  function _msgSender() internal view virtual returns (address) {... */\ntag_6:\n    /* \"@openzeppelin/contracts/utils/Context.sol\":693:700  address */\n  0x00\n    /* \"@openzeppelin/contracts/utils/Context.sol\":719:729  msg.sender */\n  caller\n    /* \"@openzeppelin/contracts/utils/Context.sol\":712:729  return msg.sender */\n  swap1\n  pop\n    /* \"@openzeppelin/contracts/utils/Context.sol\":640:736  function _msgSender() internal view virtual returns (address) {... */\n  swap1\n  jump\t// out\n    /* \"@openzeppelin/contracts/access/Ownable.sol\":2270:2457  function _transferOwnership(address newOwner) internal virtual {... */\ntag_7:\n    /* \"@openzeppelin/contracts/access/Ownable.sol\":2343:2359  address oldOwner */\n  0x00\n    /* \"@openzeppelin/contracts/access/Ownable.sol\":2362:2368  _owner */\n  dup1\n  0x00\n  swap1\n  sload\n  swap1\n  0x0100\n  exp\n  swap1\n  div\n  0xffffffffffffffffffffffffffffffffffffffff\n  and\n    /* \"@openzeppelin/contracts/access/Ownable.sol\":2343:2368  address oldOwner = _owner */\n  swap1\n  pop\n    /* \"@openzeppelin/contracts/access/Ownable.sol\":2387:2395  newOwner */\n  dup2\n    /* \"@openzeppelin/contracts/access/Ownable.sol\":2378:2384  _owner */\n  0x00\n  dup1\n    /* \"@openzeppelin/contracts/access/Ownable.sol\":2378:2395  _owner = newOwner */\n  0x0100\n  exp\n  dup2\n  sload\n  dup2\n  0xffffffffffffffffffffffffffffffffffffffff\n  mul\n  not\n  and\n  swap1\n  dup4\n  0xffffffffffffffffffffffffffffffffffffffff\n  and\n  mul\n  or\n  swap1\n  sstore\n  pop\n    /* \"@openzeppelin/contracts/access/Ownable.sol\":2441:2449  newOwner */\n  dup2\n    /* \"@openzeppelin/contracts/access/Ownable.sol\":2410:2450  OwnershipTransferred(oldOwner, newOwner) */\n  0xffffffffffffffffffffffffffffffffffffffff\n  and\n    /* \"@openzeppelin/contracts/access/Ownable.sol\":2431:2439  oldOwner */\n  dup2\n    /* \"@openzeppelin/contracts/access/Ownable.sol\":2410:2450  OwnershipTransferred(oldOwner, newOwner) */\n  0xffffffffffffffffffffffffffffffffffffffff\n  and\n  0x8be0079c531659141344cd1fd0a4f28419497f9722a3daafe3b4186f6b6457e0\n  mload(0x40)\n  mload(0x40)\n  dup1\n  swap2\n  sub\n  swap1\n  log3\n    /* \"@openzeppelin/contracts/access/Ownable.sol\":2333:2457  {... */\n  pop\n    /* \"@openzeppelin/contracts/access/Ownable.sol\":2270:2457  function _transferOwnership(address newOwner) internal virtual {... */\n  pop\n  jump\t// out\n    /* \"Maxim/BStakeSystem.sol\":367:2450  contract BStakeSystem is Ownable {... */\ntag_8:\n  dataSize(sub_0)\n  dup1\n  dataOffset(sub_0)\n  0x00\n  codecopy\n  0x00\n  return\nstop\n\nsub_0: assembly {\n        /* \"Maxim/BStakeSystem.sol\":367:2450  contract BStakeSystem is Ownable {... */\n      mstore(0x40, 0x80)\n      jumpi(tag_1, lt(calldatasize, 0x04))\n      shr(0xe0, calldataload(0x00))\n      dup1\n      0x8da5cb5b\n      gt\n      tag_9\n      jumpi\n      dup1\n      0x8da5cb5b\n      eq\n      tag_5\n      jumpi\n      dup1\n      0xb3743586\n      eq\n      tag_6\n      jumpi\n      dup1\n      0xf2fde38b\n      eq\n      tag_7\n      jumpi\n      dup1\n      0xfd5e6dd1\n      eq\n      tag_8\n      jumpi\n      jump(tag_1)\n    tag_9:\n      dup1\n      0x3a4b66f1\n      eq\n      tag_2\n      jumpi\n      dup1\n      0x51cff8d9\n      eq\n      tag_3\n      jumpi\n      dup1\n      0x715018a6\n      eq\n      tag_4\n      jumpi\n    tag_1:\n      0x00\n      dup1\n      revert\n        /* \"Maxim/BStakeSystem.sol\":1089:1709  function stake() public payable {... */\n    tag_2:\n      tag_10\n      tag_11\n      jump\t// in\n    tag_10:\n      stop\n        /* \"Maxim/BStakeSystem.sol\":2097:2445  function withdraw(address account) public payable{... */\n    tag_3:\n      tag_12\n      0x04\n      dup1\n      calldatasize\n      sub\n      dup2\n      add\n      swap1\n      tag_13\n      swap2\n      swap1\n      tag_14\n      jump\t// in\n    tag_13:\n      tag_15\n      jump\t// in\n    tag_12:\n      stop\n        /* \"@openzeppelin/contracts/access/Ownable.sol\":1668:1769  function renounceOwnership() public virtual onlyOwner {... */\n    tag_4:\n      callvalue\n      dup1\n      iszero\n      tag_16\n      jumpi\n      0x00\n      dup1\n      revert\n    tag_16:\n      pop\n      tag_17\n      tag_18\n      jump\t// in\n    tag_17:\n      stop\n        /* \"@openzeppelin/contracts/access/Ownable.sol\":1036:1121  function owner() public view virtual returns (address) {... */\n    tag_5:\n      callvalue\n      dup1\n      iszero\n      tag_19\n      jumpi\n      0x00\n      dup1\n      revert\n    tag_19:\n      pop\n      tag_20\n      tag_21\n      jump\t// in\n    tag_20:\n      mload(0x40)\n      tag_22\n      swap2\n      swap1\n      tag_23\n      jump\t// in\n    tag_22:\n      mload(0x40)\n      dup1\n      swap2\n      sub\n      swap1\n      return\n        /* \"Maxim/BStakeSystem.sol\":1717:2089  function remainedTime() public returns (uint256) {... */\n    tag_6:\n      callvalue\n      dup1\n      iszero\n      tag_24\n      jumpi\n      0x00\n      dup1\n      revert\n    tag_24:\n      pop\n      tag_25\n      tag_26\n      jump\t// in\n    tag_25:\n      mload(0x40)\n      tag_27\n      swap2\n      swap1\n      tag_28\n      jump\t// in\n    tag_27:\n      mload(0x40)\n      dup1\n      swap2\n      sub\n      swap1\n      return\n        /* \"@openzeppelin/contracts/access/Ownable.sol\":1918:2116  function transferOwnership(address newOwner) public virtual onlyOwner {... */\n    tag_7:\n      callvalue\n      dup1\n      iszero\n      tag_29\n      jumpi\n      0x00\n      dup1\n      revert\n    tag_29:\n      pop\n      tag_30\n      0x04\n      dup1\n      calldatasize\n      sub\n      dup2\n      add\n      swap1\n      tag_31\n      swap2\n      swap1\n      tag_14\n      jump\t// in\n    tag_31:\n      tag_32\n      jump\t// in\n    tag_30:\n      stop\n        /* \"Maxim/BStakeSystem.sol\":801:825  Stake_t[] public stakers */\n    tag_8:\n      callvalue\n      dup1\n      iszero\n      tag_33\n      jumpi\n      0x00\n      dup1\n      revert\n    tag_33:\n      pop\n      tag_34\n      0x04\n      dup1\n      calldatasize\n      sub\n      dup2\n      add\n      swap1\n      tag_35\n      swap2\n      swap1\n      tag_36\n      jump\t// in\n    tag_35:\n      tag_37\n      jump\t// in\n    tag_34:\n      mload(0x40)\n      tag_38\n      swap5\n      swap4\n      swap3\n      swap2\n      swap1\n      tag_39\n      jump\t// in\n    tag_38:\n      mload(0x40)\n      dup1\n      swap2\n      sub\n      swap1\n      return\n        /* \"Maxim/BStakeSystem.sol\":1089:1709  function stake() public payable {... */\n    tag_11:\n        /* \"Maxim/BStakeSystem.sol\":1227:1228  0 */\n      0x00\n        /* \"Maxim/BStakeSystem.sol\":1200:1211  _userDetail */\n      0x03\n        /* \"Maxim/BStakeSystem.sol\":1200:1223  _userDetail[msg.sender] */\n      0x00\n        /* \"Maxim/BStakeSystem.sol\":1212:1222  msg.sender */\n      caller\n        /* \"Maxim/BStakeSystem.sol\":1200:1223  _userDetail[msg.sender] */\n      0xffffffffffffffffffffffffffffffffffffffff\n      and\n      0xffffffffffffffffffffffffffffffffffffffff\n      and\n      dup2\n      mstore\n      0x20\n      add\n      swap1\n      dup2\n      mstore\n      0x20\n      add\n      0x00\n      keccak256\n      sload\n        /* \"Maxim/BStakeSystem.sol\":1200:1228  _userDetail[msg.sender] == 0 */\n      sub\n        /* \"Maxim/BStakeSystem.sol\":1197:1633  if(_userDetail[msg.sender] == 0) {... */\n      tag_41\n      jumpi\n        /* \"Maxim/BStakeSystem.sol\":1245:1252  stakers */\n      0x02\n        /* \"Maxim/BStakeSystem.sol\":1258:1312  Stake_t(msg.value, 0, 1, block.timestamp+cooldownTime) */\n      mload(0x40)\n      dup1\n      0x80\n      add\n      0x40\n      mstore\n      dup1\n        /* \"Maxim/BStakeSystem.sol\":1266:1275  msg.value */\n      callvalue\n        /* \"Maxim/BStakeSystem.sol\":1258:1312  Stake_t(msg.value, 0, 1, block.timestamp+cooldownTime) */\n      dup2\n      mstore\n      0x20\n      add\n        /* \"Maxim/BStakeSystem.sol\":1277:1278  0 */\n      0x00\n        /* \"Maxim/BStakeSystem.sol\":1258:1312  Stake_t(msg.value, 0, 1, block.timestamp+cooldownTime) */\n      dup2\n      mstore\n      0x20\n      add\n        /* \"Maxim/BStakeSystem.sol\":1280:1281  1 */\n      0x01\n        /* \"Maxim/BStakeSystem.sol\":1258:1312  Stake_t(msg.value, 0, 1, block.timestamp+cooldownTime) */\n      0xffffffff\n      and\n      dup2\n      mstore\n      0x20\n      add\n        /* \"Maxim/BStakeSystem.sol\":1299:1311  cooldownTime */\n      sload(0x01)\n        /* \"Maxim/BStakeSystem.sol\":1283:1298  block.timestamp */\n      timestamp\n        /* \"Maxim/BStakeSystem.sol\":1283:1311  block.timestamp+cooldownTime */\n      tag_42\n      swap2\n      swap1\n      tag_43\n      jump\t// in\n    tag_42:\n        /* \"Maxim/BStakeSystem.sol\":1258:1312  Stake_t(msg.value, 0, 1, block.timestamp+cooldownTime) */\n      dup2\n      mstore\n      pop\n        /* \"Maxim/BStakeSystem.sol\":1245:1313  stakers.push(Stake_t(msg.value, 0, 1, block.timestamp+cooldownTime)) */\n      swap1\n      dup1\n      0x01\n      dup2\n      sload\n      add\n      dup1\n      dup3\n      sstore\n      dup1\n      swap2\n      pop\n      pop\n      0x01\n      swap1\n      sub\n      swap1\n      0x00\n      mstore\n      keccak256(0x00, 0x20)\n      swap1\n      0x04\n      mul\n      add\n      0x00\n      swap1\n      swap2\n      swap1\n      swap2\n      swap1\n      swap2\n      pop\n      0x00\n      dup3\n      add\n      mload\n      dup2\n      0x00\n      add\n      sstore\n      0x20\n      dup3\n      add\n      mload\n      dup2\n      0x01\n      add\n      sstore\n      0x40\n      dup3\n      add\n      mload\n      dup2\n      0x02\n      add\n      exp(0x0100, 0x00)\n      dup2\n      sload\n      dup2\n      0xffffffff\n      mul\n      not\n      and\n      swap1\n      dup4\n      0xffffffff\n      and\n      mul\n      or\n      swap1\n      sstore\n      pop\n      0x60\n      dup3\n      add\n      mload\n      dup2\n      0x03\n      add\n      sstore\n      pop\n      pop\n        /* \"Maxim/BStakeSystem.sol\":1328:1342  uint256 userId */\n      0x00\n        /* \"Maxim/BStakeSystem.sol\":1345:1352  stakers */\n      0x02\n        /* \"Maxim/BStakeSystem.sol\":1345:1359  stakers.length */\n      dup1\n      sload\n      swap1\n      pop\n        /* \"Maxim/BStakeSystem.sol\":1328:1359  uint256 userId = stakers.length */\n      swap1\n      pop\n        /* \"Maxim/BStakeSystem.sol\":1400:1406  userId */\n      dup1\n        /* \"Maxim/BStakeSystem.sol\":1374:1385  _userDetail */\n      0x03\n        /* \"Maxim/BStakeSystem.sol\":1374:1397  _userDetail[msg.sender] */\n      0x00\n        /* \"Maxim/BStakeSystem.sol\":1386:1396  msg.sender */\n      caller\n        /* \"Maxim/BStakeSystem.sol\":1374:1397  _userDetail[msg.sender] */\n      0xffffffffffffffffffffffffffffffffffffffff\n      and\n      0xffffffffffffffffffffffffffffffffffffffff\n      and\n      dup2\n      mstore\n      0x20\n      add\n      swap1\n      dup2\n      mstore\n      0x20\n      add\n      0x00\n      keccak256\n        /* \"Maxim/BStakeSystem.sol\":1374:1406  _userDetail[msg.sender] = userId */\n      dup2\n      swap1\n      sstore\n      pop\n        /* \"Maxim/BStakeSystem.sol\":1230:1418  {... */\n      pop\n        /* \"Maxim/BStakeSystem.sol\":1197:1633  if(_userDetail[msg.sender] == 0) {... */\n      jump(tag_45)\n    tag_41:\n        /* \"Maxim/BStakeSystem.sol\":1448:1462  uint256 userId */\n      0x00\n        /* \"Maxim/BStakeSystem.sol\":1491:1492  1 */\n      0x01\n        /* \"Maxim/BStakeSystem.sol\":1465:1476  _userDetail */\n      0x03\n        /* \"Maxim/BStakeSystem.sol\":1465:1488  _userDetail[msg.sender] */\n      0x00\n        /* \"Maxim/BStakeSystem.sol\":1477:1487  msg.sender */\n      caller\n        /* \"Maxim/BStakeSystem.sol\":1465:1488  _userDetail[msg.sender] */\n      0xffffffffffffffffffffffffffffffffffffffff\n      and\n      0xffffffffffffffffffffffffffffffffffffffff\n      and\n      dup2\n      mstore\n      0x20\n      add\n      swap1\n      dup2\n      mstore\n      0x20\n      add\n      0x00\n      keccak256\n      sload\n        /* \"Maxim/BStakeSystem.sol\":1465:1492  _userDetail[msg.sender] - 1 */\n      tag_46\n      swap2\n      swap1\n      tag_47\n      jump\t// in\n    tag_46:\n        /* \"Maxim/BStakeSystem.sol\":1448:1492  uint256 userId = _userDetail[msg.sender] - 1 */\n      swap1\n      pop\n        /* \"Maxim/BStakeSystem.sol\":1539:1548  msg.value */\n      callvalue\n        /* \"Maxim/BStakeSystem.sol\":1507:1514  stakers */\n      0x02\n        /* \"Maxim/BStakeSystem.sol\":1515:1521  userId */\n      dup3\n        /* \"Maxim/BStakeSystem.sol\":1507:1522  stakers[userId] */\n      dup2\n      sload\n      dup2\n      lt\n      tag_48\n      jumpi\n      tag_49\n      tag_50\n      jump\t// in\n    tag_49:\n    tag_48:\n      swap1\n      0x00\n      mstore\n      keccak256(0x00, 0x20)\n      swap1\n      0x04\n      mul\n      add\n        /* \"Maxim/BStakeSystem.sol\":1507:1535  stakers[userId].stakedAmount */\n      0x00\n      add\n      0x00\n        /* \"Maxim/BStakeSystem.sol\":1507:1548  stakers[userId].stakedAmount += msg.value */\n      dup3\n      dup3\n      sload\n      tag_52\n      swap2\n      swap1\n      tag_43\n      jump\t// in\n    tag_52:\n      swap3\n      pop\n      pop\n      dup2\n      swap1\n      sstore\n      pop\n        /* \"Maxim/BStakeSystem.sol\":1609:1621  cooldownTime */\n      sload(0x01)\n        /* \"Maxim/BStakeSystem.sol\":1593:1608  block.timestamp */\n      timestamp\n        /* \"Maxim/BStakeSystem.sol\":1593:1621  block.timestamp+cooldownTime */\n      tag_53\n      swap2\n      swap1\n      tag_43\n      jump\t// in\n    tag_53:\n        /* \"Maxim/BStakeSystem.sol\":1563:1570  stakers */\n      0x02\n        /* \"Maxim/BStakeSystem.sol\":1571:1577  userId */\n      dup3\n        /* \"Maxim/BStakeSystem.sol\":1563:1578  stakers[userId] */\n      dup2\n      sload\n      dup2\n      lt\n      tag_54\n      jumpi\n      tag_55\n      tag_50\n      jump\t// in\n    tag_55:\n    tag_54:\n      swap1\n      0x00\n      mstore\n      keccak256(0x00, 0x20)\n      swap1\n      0x04\n      mul\n      add\n        /* \"Maxim/BStakeSystem.sol\":1563:1589  stakers[userId].rewardTime */\n      0x03\n      add\n      0x00\n        /* \"Maxim/BStakeSystem.sol\":1563:1621  stakers[userId].rewardTime += block.timestamp+cooldownTime */\n      dup3\n      dup3\n      sload\n      tag_57\n      swap2\n      swap1\n      tag_43\n      jump\t// in\n    tag_57:\n      swap3\n      pop\n      pop\n      dup2\n      swap1\n      sstore\n      pop\n        /* \"Maxim/BStakeSystem.sol\":1433:1633  {... */\n      pop\n        /* \"Maxim/BStakeSystem.sol\":1197:1633  if(_userDetail[msg.sender] == 0) {... */\n    tag_45:\n        /* \"Maxim/BStakeSystem.sol\":1678:1688  msg.sender */\n      caller\n        /* \"Maxim/BStakeSystem.sol\":1658:1701  StakedEvent(address(msg.sender), msg.value) */\n      0xffffffffffffffffffffffffffffffffffffffff\n      and\n      0x6bd5a68a4a6cc22607f1514ca193faf12a458c6e5bdf1fdb7a736b2e813c25d9\n        /* \"Maxim/BStakeSystem.sol\":1691:1700  msg.value */\n      callvalue\n        /* \"Maxim/BStakeSystem.sol\":1658:1701  StakedEvent(address(msg.sender), msg.value) */\n      mload(0x40)\n      tag_58\n      swap2\n      swap1\n      tag_28\n      jump\t// in\n    tag_58:\n      mload(0x40)\n      dup1\n      swap2\n      sub\n      swap1\n      log2\n        /* \"Maxim/BStakeSystem.sol\":1089:1709  function stake() public payable {... */\n      jump\t// out\n        /* \"Maxim/BStakeSystem.sol\":2097:2445  function withdraw(address account) public payable{... */\n    tag_15:\n        /* \"Maxim/BStakeSystem.sol\":2159:2173  uint256 userId */\n      0x00\n        /* \"Maxim/BStakeSystem.sol\":2199:2200  1 */\n      0x01\n        /* \"Maxim/BStakeSystem.sol\":2176:2187  _userDetail */\n      0x03\n        /* \"Maxim/BStakeSystem.sol\":2176:2196  _userDetail[account] */\n      0x00\n        /* \"Maxim/BStakeSystem.sol\":2188:2195  account */\n      dup5\n        /* \"Maxim/BStakeSystem.sol\":2176:2196  _userDetail[account] */\n      0xffffffffffffffffffffffffffffffffffffffff\n      and\n      0xffffffffffffffffffffffffffffffffffffffff\n      and\n      dup2\n      mstore\n      0x20\n      add\n      swap1\n      dup2\n      mstore\n      0x20\n      add\n      0x00\n      keccak256\n      sload\n        /* \"Maxim/BStakeSystem.sol\":2176:2200  _userDetail[account] - 1 */\n      tag_60\n      swap2\n      swap1\n      tag_47\n      jump\t// in\n    tag_60:\n        /* \"Maxim/BStakeSystem.sol\":2159:2200  uint256 userId = _userDetail[account] - 1 */\n      swap1\n      pop\n        /* \"Maxim/BStakeSystem.sol\":2211:2225  uint256 reward */\n      0x00\n        /* \"Maxim/BStakeSystem.sol\":2263:2266  100 */\n      0x64\n        /* \"Maxim/BStakeSystem.sol\":2259:2260  3 */\n      0x03\n        /* \"Maxim/BStakeSystem.sol\":2228:2235  stakers */\n      0x02\n        /* \"Maxim/BStakeSystem.sol\":2236:2242  userId */\n      dup5\n        /* \"Maxim/BStakeSystem.sol\":2228:2243  stakers[userId] */\n      dup2\n      sload\n      dup2\n      lt\n      tag_61\n      jumpi\n      tag_62\n      tag_50\n      jump\t// in\n    tag_62:\n    tag_61:\n      swap1\n      0x00\n      mstore\n      keccak256(0x00, 0x20)\n      swap1\n      0x04\n      mul\n      add\n        /* \"Maxim/BStakeSystem.sol\":2228:2256  stakers[userId].stakedAmount */\n      0x00\n      add\n      sload\n        /* \"Maxim/BStakeSystem.sol\":2228:2260  stakers[userId].stakedAmount * 3 */\n      tag_64\n      swap2\n      swap1\n      tag_65\n      jump\t// in\n    tag_64:\n        /* \"Maxim/BStakeSystem.sol\":2228:2266  stakers[userId].stakedAmount * 3 / 100 */\n      tag_66\n      swap2\n      swap1\n      tag_67\n      jump\t// in\n    tag_66:\n        /* \"Maxim/BStakeSystem.sol\":2211:2266  uint256 reward = stakers[userId].stakedAmount * 3 / 100 */\n      swap1\n      pop\n        /* \"Maxim/BStakeSystem.sol\":2316:2322  reward */\n      dup1\n        /* \"Maxim/BStakeSystem.sol\":2279:2286  stakers */\n      0x02\n        /* \"Maxim/BStakeSystem.sol\":2287:2293  userId */\n      dup4\n        /* \"Maxim/BStakeSystem.sol\":2279:2294  stakers[userId] */\n      dup2\n      sload\n      dup2\n      lt\n      tag_68\n      jumpi\n      tag_69\n      tag_50\n      jump\t// in\n    tag_69:\n    tag_68:\n      swap1\n      0x00\n      mstore\n      keccak256(0x00, 0x20)\n      swap1\n      0x04\n      mul\n      add\n        /* \"Maxim/BStakeSystem.sol\":2279:2312  stakers[userId].totalRewardAmount */\n      0x01\n      add\n      0x00\n        /* \"Maxim/BStakeSystem.sol\":2279:2322  stakers[userId].totalRewardAmount += reward */\n      dup3\n      dup3\n      sload\n      tag_71\n      swap2\n      swap1\n      tag_43\n      jump\t// in\n    tag_71:\n      swap3\n      pop\n      pop\n      dup2\n      swap1\n      sstore\n      pop\n        /* \"Maxim/BStakeSystem.sol\":2343:2388  _safeTransferBNB(address(msg.sender), reward) */\n      tag_72\n        /* \"Maxim/BStakeSystem.sol\":2368:2378  msg.sender */\n      caller\n        /* \"Maxim/BStakeSystem.sol\":2381:2387  reward */\n      dup3\n        /* \"Maxim/BStakeSystem.sol\":2343:2359  _safeTransferBNB */\n      tag_73\n        /* \"Maxim/BStakeSystem.sol\":2343:2388  _safeTransferBNB(address(msg.sender), reward) */\n      jump\t// in\n    tag_72:\n        /* \"Maxim/BStakeSystem.sol\":2418:2428  msg.sender */\n      caller\n        /* \"Maxim/BStakeSystem.sol\":2404:2437  WithdrawEvent(msg.sender, reward) */\n      0xffffffffffffffffffffffffffffffffffffffff\n      and\n      0x5dba113b49cfa7c90315e8e604e6b506f7abcb909b01dcb19ec39005086e68fc\n        /* \"Maxim/BStakeSystem.sol\":2430:2436  reward */\n      dup3\n        /* \"Maxim/BStakeSystem.sol\":2404:2437  WithdrawEvent(msg.sender, reward) */\n      mload(0x40)\n      tag_74\n      swap2\n      swap1\n      tag_28\n      jump\t// in\n    tag_74:\n      mload(0x40)\n      dup1\n      swap2\n      sub\n      swap1\n      log2\n        /* \"Maxim/BStakeSystem.sol\":2146:2445  {... */\n      pop\n      pop\n        /* \"Maxim/BStakeSystem.sol\":2097:2445  function withdraw(address account) public payable{... */\n      pop\n      jump\t// out\n        /* \"@openzeppelin/contracts/access/Ownable.sol\":1668:1769  function renounceOwnership() public virtual onlyOwner {... */\n    tag_18:\n        /* \"@openzeppelin/contracts/access/Ownable.sol\":1259:1271  _msgSender() */\n      tag_76\n        /* \"@openzeppelin/contracts/access/Ownable.sol\":1259:1269  _msgSender */\n      tag_77\n        /* \"@openzeppelin/contracts/access/Ownable.sol\":1259:1271  _msgSender() */\n      jump\t// in\n    tag_76:\n        /* \"@openzeppelin/contracts/access/Ownable.sol\":1248:1271  owner() == _msgSender() */\n      0xffffffffffffffffffffffffffffffffffffffff\n      and\n        /* \"@openzeppelin/contracts/access/Ownable.sol\":1248:1255  owner() */\n      tag_78\n        /* \"@openzeppelin/contracts/access/Ownable.sol\":1248:1253  owner */\n      tag_21\n        /* \"@openzeppelin/contracts/access/Ownable.sol\":1248:1255  owner() */\n      jump\t// in\n    tag_78:\n        /* \"@openzeppelin/contracts/access/Ownable.sol\":1248:1271  owner() == _msgSender() */\n      0xffffffffffffffffffffffffffffffffffffffff\n      and\n      eq\n        /* \"@openzeppelin/contracts/access/Ownable.sol\":1240:1308  require(owner() == _msgSender(), \"Ownable: caller is not the owner\") */\n      tag_79\n      jumpi\n      mload(0x40)\n      0x08c379a000000000000000000000000000000000000000000000000000000000\n      dup2\n      mstore\n      0x04\n      add\n      tag_80\n      swap1\n      tag_81\n      jump\t// in\n    tag_80:\n      mload(0x40)\n      dup1\n      swap2\n      sub\n      swap1\n      revert\n    tag_79:\n        /* \"@openzeppelin/contracts/access/Ownable.sol\":1732:1762  _transferOwnership(address(0)) */\n      tag_83\n        /* \"@openzeppelin/contracts/access/Ownable.sol\":1759:1760  0 */\n      0x00\n        /* \"@openzeppelin/contracts/access/Ownable.sol\":1732:1750  _transferOwnership */\n      tag_84\n        /* \"@openzeppelin/contracts/access/Ownable.sol\":1732:1762  _transferOwnership(address(0)) */\n      jump\t// in\n    tag_83:\n        /* \"@openzeppelin/contracts/access/Ownable.sol\":1668:1769  function renounceOwnership() public virtual onlyOwner {... */\n      jump\t// out\n        /* \"@openzeppelin/contracts/access/Ownable.sol\":1036:1121  function owner() public view virtual returns (address) {... */\n    tag_21:\n        /* \"@openzeppelin/contracts/access/Ownable.sol\":1082:1089  address */\n      0x00\n        /* \"@openzeppelin/contracts/access/Ownable.sol\":1108:1114  _owner */\n      dup1\n      0x00\n      swap1\n      sload\n      swap1\n      0x0100\n      exp\n      swap1\n      div\n      0xffffffffffffffffffffffffffffffffffffffff\n      and\n        /* \"@openzeppelin/contracts/access/Ownable.sol\":1101:1114  return _owner */\n      swap1\n      pop\n        /* \"@openzeppelin/contracts/access/Ownable.sol\":1036:1121  function owner() public view virtual returns (address) {... */\n      swap1\n      jump\t// out\n        /* \"Maxim/BStakeSystem.sol\":1717:2089  function remainedTime() public returns (uint256) {... */\n    tag_26:\n        /* \"Maxim/BStakeSystem.sol\":1757:1764  uint256 */\n      0x00\n        /* \"Maxim/BStakeSystem.sol\":1787:1801  uint256 userId */\n      dup1\n        /* \"Maxim/BStakeSystem.sol\":1830:1831  1 */\n      0x01\n        /* \"Maxim/BStakeSystem.sol\":1804:1815  _userDetail */\n      0x03\n        /* \"Maxim/BStakeSystem.sol\":1804:1827  _userDetail[msg.sender] */\n      0x00\n        /* \"Maxim/BStakeSystem.sol\":1816:1826  msg.sender */\n      caller\n        /* \"Maxim/BStakeSystem.sol\":1804:1827  _userDetail[msg.sender] */\n      0xffffffffffffffffffffffffffffffffffffffff\n      and\n      0xffffffffffffffffffffffffffffffffffffffff\n      and\n      dup2\n      mstore\n      0x20\n      add\n      swap1\n      dup2\n      mstore\n      0x20\n      add\n      0x00\n      keccak256\n      sload\n        /* \"Maxim/BStakeSystem.sol\":1804:1831  _userDetail[msg.sender] - 1 */\n      tag_87\n      swap2\n      swap1\n      tag_47\n      jump\t// in\n    tag_87:\n        /* \"Maxim/BStakeSystem.sol\":1787:1831  uint256 userId = _userDetail[msg.sender] - 1 */\n      swap1\n      pop\n        /* \"Maxim/BStakeSystem.sol\":1876:1891  block.timestamp */\n      timestamp\n        /* \"Maxim/BStakeSystem.sol\":1847:1854  stakers */\n      0x02\n        /* \"Maxim/BStakeSystem.sol\":1855:1861  userId */\n      dup3\n        /* \"Maxim/BStakeSystem.sol\":1847:1862  stakers[userId] */\n      dup2\n      sload\n      dup2\n      lt\n      tag_88\n      jumpi\n      tag_89\n      tag_50\n      jump\t// in\n    tag_89:\n    tag_88:\n      swap1\n      0x00\n      mstore\n      keccak256(0x00, 0x20)\n      swap1\n      0x04\n      mul\n      add\n        /* \"Maxim/BStakeSystem.sol\":1847:1873  stakers[userId].rewardTime */\n      0x03\n      add\n      sload\n        /* \"Maxim/BStakeSystem.sol\":1847:1891  stakers[userId].rewardTime < block.timestamp */\n      lt\n        /* \"Maxim/BStakeSystem.sol\":1844:2018  if(stakers[userId].rewardTime < block.timestamp) {... */\n      iszero\n      tag_91\n      jumpi\n        /* \"Maxim/BStakeSystem.sol\":1957:1969  cooldownTime */\n      sload(0x01)\n        /* \"Maxim/BStakeSystem.sol\":1939:1954  block.timestamp */\n      timestamp\n        /* \"Maxim/BStakeSystem.sol\":1939:1969  block.timestamp + cooldownTime */\n      tag_92\n      swap2\n      swap1\n      tag_43\n      jump\t// in\n    tag_92:\n        /* \"Maxim/BStakeSystem.sol\":1910:1917  stakers */\n      0x02\n        /* \"Maxim/BStakeSystem.sol\":1918:1924  userId */\n      dup3\n        /* \"Maxim/BStakeSystem.sol\":1910:1925  stakers[userId] */\n      dup2\n      sload\n      dup2\n      lt\n      tag_93\n      jumpi\n      tag_94\n      tag_50\n      jump\t// in\n    tag_94:\n    tag_93:\n      swap1\n      0x00\n      mstore\n      keccak256(0x00, 0x20)\n      swap1\n      0x04\n      mul\n      add\n        /* \"Maxim/BStakeSystem.sol\":1910:1936  stakers[userId].rewardTime */\n      0x03\n      add\n        /* \"Maxim/BStakeSystem.sol\":1910:1969  stakers[userId].rewardTime = block.timestamp + cooldownTime */\n      dup2\n      swap1\n      sstore\n      pop\n        /* \"Maxim/BStakeSystem.sol\":1986:2006  withdraw(msg.sender) */\n      tag_96\n        /* \"Maxim/BStakeSystem.sol\":1995:2005  msg.sender */\n      caller\n        /* \"Maxim/BStakeSystem.sol\":1986:1994  withdraw */\n      tag_15\n        /* \"Maxim/BStakeSystem.sol\":1986:2006  withdraw(msg.sender) */\n      jump\t// in\n    tag_96:\n        /* \"Maxim/BStakeSystem.sol\":1844:2018  if(stakers[userId].rewardTime < block.timestamp) {... */\n    tag_91:\n        /* \"Maxim/BStakeSystem.sol\":2055:2062  stakers */\n      0x02\n        /* \"Maxim/BStakeSystem.sol\":2063:2069  userId */\n      dup2\n        /* \"Maxim/BStakeSystem.sol\":2055:2070  stakers[userId] */\n      dup2\n      sload\n      dup2\n      lt\n      tag_97\n      jumpi\n      tag_98\n      tag_50\n      jump\t// in\n    tag_98:\n    tag_97:\n      swap1\n      0x00\n      mstore\n      keccak256(0x00, 0x20)\n      swap1\n      0x04\n      mul\n      add\n        /* \"Maxim/BStakeSystem.sol\":2055:2081  stakers[userId].rewardTime */\n      0x03\n      add\n      sload\n        /* \"Maxim/BStakeSystem.sol\":2037:2052  block.timestamp */\n      timestamp\n        /* \"Maxim/BStakeSystem.sol\":2037:2081  block.timestamp - stakers[userId].rewardTime */\n      tag_100\n      swap2\n      swap1\n      tag_47\n      jump\t// in\n    tag_100:\n        /* \"Maxim/BStakeSystem.sol\":2030:2081  return block.timestamp - stakers[userId].rewardTime */\n      swap2\n      pop\n      pop\n        /* \"Maxim/BStakeSystem.sol\":1717:2089  function remainedTime() public returns (uint256) {... */\n      swap1\n      jump\t// out\n        /* \"@openzeppelin/contracts/access/Ownable.sol\":1918:2116  function transferOwnership(address newOwner) public virtual onlyOwner {... */\n    tag_32:\n        /* \"@openzeppelin/contracts/access/Ownable.sol\":1259:1271  _msgSender() */\n      tag_102\n        /* \"@openzeppelin/contracts/access/Ownable.sol\":1259:1269  _msgSender */\n      tag_77\n        /* \"@openzeppelin/contracts/access/Ownable.sol\":1259:1271  _msgSender() */\n      jump\t// in\n    tag_102:\n        /* \"@openzeppelin/contracts/access/Ownable.sol\":1248:1271  owner() == _msgSender() */\n      0xffffffffffffffffffffffffffffffffffffffff\n      and\n        /* \"@openzeppelin/contracts/access/Ownable.sol\":1248:1255  owner() */\n      tag_103\n        /* \"@openzeppelin/contracts/access/Ownable.sol\":1248:1253  owner */\n      tag_21\n        /* \"@openzeppelin/contracts/access/Ownable.sol\":1248:1255  owner() */\n      jump\t// in\n    tag_103:\n        /* \"@openzeppelin/contracts/access/Ownable.sol\":1248:1271  owner() == _msgSender() */\n      0xffffffffffffffffffffffffffffffffffffffff\n      and\n      eq\n        /* \"@openzeppelin/contracts/access/Ownable.sol\":1240:1308  require(owner() == _msgSender(), \"Ownable: caller is not the owner\") */\n      tag_104\n      jumpi\n      mload(0x40)\n      0x08c379a000000000000000000000000000000000000000000000000000000000\n      dup2\n      mstore\n      0x04\n      add\n      tag_105\n      swap1\n      tag_81\n      jump\t// in\n    tag_105:\n      mload(0x40)\n      dup1\n      swap2\n      sub\n      swap1\n      revert\n    tag_104:\n        /* \"@openzeppelin/contracts/access/Ownable.sol\":2026:2027  0 */\n      0x00\n        /* \"@openzeppelin/contracts/access/Ownable.sol\":2006:2028  newOwner != address(0) */\n      0xffffffffffffffffffffffffffffffffffffffff\n      and\n        /* \"@openzeppelin/contracts/access/Ownable.sol\":2006:2014  newOwner */\n      dup2\n        /* \"@openzeppelin/contracts/access/Ownable.sol\":2006:2028  newOwner != address(0) */\n      0xffffffffffffffffffffffffffffffffffffffff\n      and\n      sub\n        /* \"@openzeppelin/contracts/access/Ownable.sol\":1998:2071  require(newOwner != address(0), \"Ownable: new owner is the zero address\") */\n      tag_107\n      jumpi\n      mload(0x40)\n      0x08c379a000000000000000000000000000000000000000000000000000000000\n      dup2\n      mstore\n      0x04\n      add\n      tag_108\n      swap1\n      tag_109\n      jump\t// in\n    tag_108:\n      mload(0x40)\n      dup1\n      swap2\n      sub\n      swap1\n      revert\n    tag_107:\n        /* \"@openzeppelin/contracts/access/Ownable.sol\":2081:2109  _transferOwnership(newOwner) */\n      tag_110\n        /* \"@openzeppelin/contracts/access/Ownable.sol\":2100:2108  newOwner */\n      dup2\n        /* \"@openzeppelin/contracts/access/Ownable.sol\":2081:2099  _transferOwnership */\n      tag_84\n        /* \"@openzeppelin/contracts/access/Ownable.sol\":2081:2109  _transferOwnership(newOwner) */\n      jump\t// in\n    tag_110:\n        /* \"@openzeppelin/contracts/access/Ownable.sol\":1918:2116  function transferOwnership(address newOwner) public virtual onlyOwner {... */\n      pop\n      jump\t// out\n        /* \"Maxim/BStakeSystem.sol\":801:825  Stake_t[] public stakers */\n    tag_37:\n      0x02\n      dup2\n      dup2\n      sload\n      dup2\n      lt\n      tag_111\n      jumpi\n      0x00\n      dup1\n      revert\n    tag_111:\n      swap1\n      0x00\n      mstore\n      keccak256(0x00, 0x20)\n      swap1\n      0x04\n      mul\n      add\n      0x00\n      swap2\n      pop\n      swap1\n      pop\n      dup1\n      0x00\n      add\n      sload\n      swap1\n      dup1\n      0x01\n      add\n      sload\n      swap1\n      dup1\n      0x02\n      add\n      0x00\n      swap1\n      sload\n      swap1\n      0x0100\n      exp\n      swap1\n      div\n      0xffffffff\n      and\n      swap1\n      dup1\n      0x03\n      add\n      sload\n      swap1\n      pop\n      dup5\n      jump\t// out\n        /* \"Maxim/BStakeSystem.sol\":890:1081  function _safeTransferBNB(address to, uint256 value) internal {... */\n    tag_73:\n        /* \"Maxim/BStakeSystem.sol\":964:976  bool success */\n      0x00\n        /* \"Maxim/BStakeSystem.sol\":982:984  to */\n      dup3\n        /* \"Maxim/BStakeSystem.sol\":982:989  to.call */\n      0xffffffffffffffffffffffffffffffffffffffff\n      and\n        /* \"Maxim/BStakeSystem.sol\":997:1002  value */\n      dup3\n        /* \"Maxim/BStakeSystem.sol\":982:1007  to.call{value: value}(\"\") */\n      mload(0x40)\n      tag_114\n      swap1\n      tag_115\n      jump\t// in\n    tag_114:\n      0x00\n      mload(0x40)\n      dup1\n      dup4\n      sub\n      dup2\n      dup6\n      dup8\n      gas\n      call\n      swap3\n      pop\n      pop\n      pop\n      returndatasize\n      dup1\n      0x00\n      dup2\n      eq\n      tag_118\n      jumpi\n      mload(0x40)\n      swap2\n      pop\n      and(add(returndatasize, 0x3f), not(0x1f))\n      dup3\n      add\n      0x40\n      mstore\n      returndatasize\n      dup3\n      mstore\n      returndatasize\n      0x00\n      0x20\n      dup5\n      add\n      returndatacopy\n      jump(tag_117)\n    tag_118:\n      0x60\n      swap2\n      pop\n    tag_117:\n      pop\n        /* \"Maxim/BStakeSystem.sol\":963:1007  (bool success, ) = to.call{value: value}(\"\") */\n      pop\n      swap1\n      pop\n        /* \"Maxim/BStakeSystem.sol\":1026:1033  success */\n      dup1\n        /* \"Maxim/BStakeSystem.sol\":1018:1073  require(success, \"TransferHelper: BNB_TRANSFER_FAILED\") */\n      tag_119\n      jumpi\n      mload(0x40)\n      0x08c379a000000000000000000000000000000000000000000000000000000000\n      dup2\n      mstore\n      0x04\n      add\n      tag_120\n      swap1\n      tag_121\n      jump\t// in\n    tag_120:\n      mload(0x40)\n      dup1\n      swap2\n      sub\n      swap1\n      revert\n    tag_119:\n        /* \"Maxim/BStakeSystem.sol\":952:1081  {... */\n      pop\n        /* \"Maxim/BStakeSystem.sol\":890:1081  function _safeTransferBNB(address to, uint256 value) internal {... */\n      pop\n      pop\n      jump\t// out\n        /* \"@openzeppelin/contracts/utils/Context.sol\":640:736  function _msgSender() internal view virtual returns (address) {... */\n    tag_77:\n        /* \"@openzeppelin/contracts/utils/Context.sol\":693:700  address */\n      0x00\n        /* \"@openzeppelin/contracts/utils/Context.sol\":719:729  msg.sender */\n      caller\n        /* \"@openzeppelin/contracts/utils/Context.sol\":712:729  return msg.sender */\n      swap1\n      pop\n        /* \"@openzeppelin/contracts/utils/Context.sol\":640:736  function _msgSender() internal view virtual returns (address) {... */\n      swap1\n      jump\t// out\n        /* \"@openzeppelin/contracts/access/Ownable.sol\":2270:2457  function _transferOwnership(address newOwner) internal virtual {... */\n    tag_84:\n        /* \"@openzeppelin/contracts/access/Ownable.sol\":2343:2359  address oldOwner */\n      0x00\n        /* \"@openzeppelin/contracts/access/Ownable.sol\":2362:2368  _owner */\n      dup1\n      0x00\n      swap1\n      sload\n      swap1\n      0x0100\n      exp\n      swap1\n      div\n      0xffffffffffffffffffffffffffffffffffffffff\n      and\n        /* \"@openzeppelin/contracts/access/Ownable.sol\":2343:2368  address oldOwner = _owner */\n      swap1\n      pop\n        /* \"@openzeppelin/contracts/access/Ownable.sol\":2387:2395  newOwner */\n      dup2\n        /* \"@openzeppelin/contracts/access/Ownable.sol\":2378:2384  _owner */\n      0x00\n      dup1\n        /* \"@openzeppelin/contracts/access/Ownable.sol\":2378:2395  _owner = newOwner */\n      0x0100\n      exp\n      dup2\n      sload\n      dup2\n      0xffffffffffffffffffffffffffffffffffffffff\n      mul\n      not\n      and\n      swap1\n      dup4\n      0xffffffffffffffffffffffffffffffffffffffff\n      and\n      mul\n      or\n      swap1\n      sstore\n      pop\n        /* \"@openzeppelin/contracts/access/Ownable.sol\":2441:2449  newOwner */\n      dup2\n        /* \"@openzeppelin/contracts/access/Ownable.sol\":2410:2450  OwnershipTransferred(oldOwner, newOwner) */\n      0xffffffffffffffffffffffffffffffffffffffff\n      and\n        /* \"@openzeppelin/contracts/access/Ownable.sol\":2431:2439  oldOwner */\n      dup2\n        /* \"@openzeppelin/contracts/access/Ownable.sol\":2410:2450  OwnershipTransferred(oldOwner, newOwner) */\n      0xffffffffffffffffffffffffffffffffffffffff\n      and\n      0x8be0079c531659141344cd1fd0a4f28419497f9722a3daafe3b4186f6b6457e0\n      mload(0x40)\n      mload(0x40)\n      dup1\n      swap2\n      sub\n      swap1\n      log3\n        /* \"@openzeppelin/contracts/access/Ownable.sol\":2333:2457  {... */\n      pop\n        /* \"@openzeppelin/contracts/access/Ownable.sol\":2270:2457  function _transferOwnership(address newOwner) internal virtual {... */\n      pop\n      jump\t// out\n        /* \"#utility.yul\":88:205   */\n    tag_125:\n        /* \"#utility.yul\":197:198   */\n      0x00\n        /* \"#utility.yul\":194:195   */\n      dup1\n        /* \"#utility.yul\":187:199   */\n      revert\n        /* \"#utility.yul\":334:460   */\n    tag_127:\n        /* \"#utility.yul\":371:378   */\n      0x00\n        /* \"#utility.yul\":411:453   */\n      0xffffffffffffffffffffffffffffffffffffffff\n        /* \"#utility.yul\":404:409   */\n      dup3\n        /* \"#utility.yul\":400:454   */\n      and\n        /* \"#utility.yul\":389:454   */\n      swap1\n      pop\n        /* \"#utility.yul\":334:460   */\n      swap2\n      swap1\n      pop\n      jump\t// out\n        /* \"#utility.yul\":466:562   */\n    tag_128:\n        /* \"#utility.yul\":503:510   */\n      0x00\n        /* \"#utility.yul\":532:556   */\n      tag_156\n        /* \"#utility.yul\":550:555   */\n      dup3\n        /* \"#utility.yul\":532:556   */\n      tag_127\n      jump\t// in\n    tag_156:\n        /* \"#utility.yul\":521:556   */\n      swap1\n      pop\n        /* \"#utility.yul\":466:562   */\n      swap2\n      swap1\n      pop\n      jump\t// out\n        /* \"#utility.yul\":568:690   */\n    tag_129:\n        /* \"#utility.yul\":641:665   */\n      tag_158\n        /* \"#utility.yul\":659:664   */\n      dup2\n        /* \"#utility.yul\":641:665   */\n      tag_128\n      jump\t// in\n    tag_158:\n        /* \"#utility.yul\":634:639   */\n      dup2\n        /* \"#utility.yul\":631:666   */\n      eq\n        /* \"#utility.yul\":621:684   */\n      tag_159\n      jumpi\n        /* \"#utility.yul\":680:681   */\n      0x00\n        /* \"#utility.yul\":677:678   */\n      dup1\n        /* \"#utility.yul\":670:682   */\n      revert\n        /* \"#utility.yul\":621:684   */\n    tag_159:\n        /* \"#utility.yul\":568:690   */\n      pop\n      jump\t// out\n        /* \"#utility.yul\":696:835   */\n    tag_130:\n        /* \"#utility.yul\":742:747   */\n      0x00\n        /* \"#utility.yul\":780:786   */\n      dup2\n        /* \"#utility.yul\":767:787   */\n      calldataload\n        /* \"#utility.yul\":758:787   */\n      swap1\n      pop\n        /* \"#utility.yul\":796:829   */\n      tag_161\n        /* \"#utility.yul\":823:828   */\n      dup2\n        /* \"#utility.yul\":796:829   */\n      tag_129\n      jump\t// in\n    tag_161:\n        /* \"#utility.yul\":696:835   */\n      swap3\n      swap2\n      pop\n      pop\n      jump\t// out\n        /* \"#utility.yul\":841:1170   */\n    tag_14:\n        /* \"#utility.yul\":900:906   */\n      0x00\n        /* \"#utility.yul\":949:951   */\n      0x20\n        /* \"#utility.yul\":937:946   */\n      dup3\n        /* \"#utility.yul\":928:935   */\n      dup5\n        /* \"#utility.yul\":924:947   */\n      sub\n        /* \"#utility.yul\":920:952   */\n      slt\n        /* \"#utility.yul\":917:1036   */\n      iszero\n      tag_163\n      jumpi\n        /* \"#utility.yul\":955:1034   */\n      tag_164\n      tag_125\n      jump\t// in\n    tag_164:\n        /* \"#utility.yul\":917:1036   */\n    tag_163:\n        /* \"#utility.yul\":1075:1076   */\n      0x00\n        /* \"#utility.yul\":1100:1153   */\n      tag_165\n        /* \"#utility.yul\":1145:1152   */\n      dup5\n        /* \"#utility.yul\":1136:1142   */\n      dup3\n        /* \"#utility.yul\":1125:1134   */\n      dup6\n        /* \"#utility.yul\":1121:1143   */\n      add\n        /* \"#utility.yul\":1100:1153   */\n      tag_130\n      jump\t// in\n    tag_165:\n        /* \"#utility.yul\":1090:1153   */\n      swap2\n      pop\n        /* \"#utility.yul\":1046:1163   */\n      pop\n        /* \"#utility.yul\":841:1170   */\n      swap3\n      swap2\n      pop\n      pop\n      jump\t// out\n        /* \"#utility.yul\":1176:1294   */\n    tag_131:\n        /* \"#utility.yul\":1263:1287   */\n      tag_167\n        /* \"#utility.yul\":1281:1286   */\n      dup2\n        /* \"#utility.yul\":1263:1287   */\n      tag_128\n      jump\t// in\n    tag_167:\n        /* \"#utility.yul\":1258:1261   */\n      dup3\n        /* \"#utility.yul\":1251:1288   */\n      mstore\n        /* \"#utility.yul\":1176:1294   */\n      pop\n      pop\n      jump\t// out\n        /* \"#utility.yul\":1300:1522   */\n    tag_23:\n        /* \"#utility.yul\":1393:1397   */\n      0x00\n        /* \"#utility.yul\":1431:1433   */\n      0x20\n        /* \"#utility.yul\":1420:1429   */\n      dup3\n        /* \"#utility.yul\":1416:1434   */\n      add\n        /* \"#utility.yul\":1408:1434   */\n      swap1\n      pop\n        /* \"#utility.yul\":1444:1515   */\n      tag_169\n        /* \"#utility.yul\":1512:1513   */\n      0x00\n        /* \"#utility.yul\":1501:1510   */\n      dup4\n        /* \"#utility.yul\":1497:1514   */\n      add\n        /* \"#utility.yul\":1488:1494   */\n      dup5\n        /* \"#utility.yul\":1444:1515   */\n      tag_131\n      jump\t// in\n    tag_169:\n        /* \"#utility.yul\":1300:1522   */\n      swap3\n      swap2\n      pop\n      pop\n      jump\t// out\n        /* \"#utility.yul\":1528:1605   */\n    tag_132:\n        /* \"#utility.yul\":1565:1572   */\n      0x00\n        /* \"#utility.yul\":1594:1599   */\n      dup2\n        /* \"#utility.yul\":1583:1599   */\n      swap1\n      pop\n        /* \"#utility.yul\":1528:1605   */\n      swap2\n      swap1\n      pop\n      jump\t// out\n        /* \"#utility.yul\":1611:1729   */\n    tag_133:\n        /* \"#utility.yul\":1698:1722   */\n      tag_172\n        /* \"#utility.yul\":1716:1721   */\n      dup2\n        /* \"#utility.yul\":1698:1722   */\n      tag_132\n      jump\t// in\n    tag_172:\n        /* \"#utility.yul\":1693:1696   */\n      dup3\n        /* \"#utility.yul\":1686:1723   */\n      mstore\n        /* \"#utility.yul\":1611:1729   */\n      pop\n      pop\n      jump\t// out\n        /* \"#utility.yul\":1735:1957   */\n    tag_28:\n        /* \"#utility.yul\":1828:1832   */\n      0x00\n        /* \"#utility.yul\":1866:1868   */\n      0x20\n        /* \"#utility.yul\":1855:1864   */\n      dup3\n        /* \"#utility.yul\":1851:1869   */\n      add\n        /* \"#utility.yul\":1843:1869   */\n      swap1\n      pop\n        /* \"#utility.yul\":1879:1950   */\n      tag_174\n        /* \"#utility.yul\":1947:1948   */\n      0x00\n        /* \"#utility.yul\":1936:1945   */\n      dup4\n        /* \"#utility.yul\":1932:1949   */\n      add\n        /* \"#utility.yul\":1923:1929   */\n      dup5\n        /* \"#utility.yul\":1879:1950   */\n      tag_133\n      jump\t// in\n    tag_174:\n        /* \"#utility.yul\":1735:1957   */\n      swap3\n      swap2\n      pop\n      pop\n      jump\t// out\n        /* \"#utility.yul\":1963:2085   */\n    tag_134:\n        /* \"#utility.yul\":2036:2060   */\n      tag_176\n        /* \"#utility.yul\":2054:2059   */\n      dup2\n        /* \"#utility.yul\":2036:2060   */\n      tag_132\n      jump\t// in\n    tag_176:\n        /* \"#utility.yul\":2029:2034   */\n      dup2\n        /* \"#utility.yul\":2026:2061   */\n      eq\n        /* \"#utility.yul\":2016:2079   */\n      tag_177\n      jumpi\n        /* \"#utility.yul\":2075:2076   */\n      0x00\n        /* \"#utility.yul\":2072:2073   */\n      dup1\n        /* \"#utility.yul\":2065:2077   */\n      revert\n        /* \"#utility.yul\":2016:2079   */\n    tag_177:\n        /* \"#utility.yul\":1963:2085   */\n      pop\n      jump\t// out\n        /* \"#utility.yul\":2091:2230   */\n    tag_135:\n        /* \"#utility.yul\":2137:2142   */\n      0x00\n        /* \"#utility.yul\":2175:2181   */\n      dup2\n        /* \"#utility.yul\":2162:2182   */\n      calldataload\n        /* \"#utility.yul\":2153:2182   */\n      swap1\n      pop\n        /* \"#utility.yul\":2191:2224   */\n      tag_179\n        /* \"#utility.yul\":2218:2223   */\n      dup2\n        /* \"#utility.yul\":2191:2224   */\n      tag_134\n      jump\t// in\n    tag_179:\n        /* \"#utility.yul\":2091:2230   */\n      swap3\n      swap2\n      pop\n      pop\n      jump\t// out\n        /* \"#utility.yul\":2236:2565   */\n    tag_36:\n        /* \"#utility.yul\":2295:2301   */\n      0x00\n        /* \"#utility.yul\":2344:2346   */\n      0x20\n        /* \"#utility.yul\":2332:2341   */\n      dup3\n        /* \"#utility.yul\":2323:2330   */\n      dup5\n        /* \"#utility.yul\":2319:2342   */\n      sub\n        /* \"#utility.yul\":2315:2347   */\n      slt\n        /* \"#utility.yul\":2312:2431   */\n      iszero\n      tag_181\n      jumpi\n        /* \"#utility.yul\":2350:2429   */\n      tag_182\n      tag_125\n      jump\t// in\n    tag_182:\n        /* \"#utility.yul\":2312:2431   */\n    tag_181:\n        /* \"#utility.yul\":2470:2471   */\n      0x00\n        /* \"#utility.yul\":2495:2548   */\n      tag_183\n        /* \"#utility.yul\":2540:2547   */\n      dup5\n        /* \"#utility.yul\":2531:2537   */\n      dup3\n        /* \"#utility.yul\":2520:2529   */\n      dup6\n        /* \"#utility.yul\":2516:2538   */\n      add\n        /* \"#utility.yul\":2495:2548   */\n      tag_135\n      jump\t// in\n    tag_183:\n        /* \"#utility.yul\":2485:2548   */\n      swap2\n      pop\n        /* \"#utility.yul\":2441:2558   */\n      pop\n        /* \"#utility.yul\":2236:2565   */\n      swap3\n      swap2\n      pop\n      pop\n      jump\t// out\n        /* \"#utility.yul\":2571:2664   */\n    tag_136:\n        /* \"#utility.yul\":2607:2614   */\n      0x00\n        /* \"#utility.yul\":2647:2657   */\n      0xffffffff\n        /* \"#utility.yul\":2640:2645   */\n      dup3\n        /* \"#utility.yul\":2636:2658   */\n      and\n        /* \"#utility.yul\":2625:2658   */\n      swap1\n      pop\n        /* \"#utility.yul\":2571:2664   */\n      swap2\n      swap1\n      pop\n      jump\t// out\n        /* \"#utility.yul\":2670:2785   */\n    tag_137:\n        /* \"#utility.yul\":2755:2778   */\n      tag_186\n        /* \"#utility.yul\":2772:2777   */\n      dup2\n        /* \"#utility.yul\":2755:2778   */\n      tag_136\n      jump\t// in\n    tag_186:\n        /* \"#utility.yul\":2750:2753   */\n      dup3\n        /* \"#utility.yul\":2743:2779   */\n      mstore\n        /* \"#utility.yul\":2670:2785   */\n      pop\n      pop\n      jump\t// out\n        /* \"#utility.yul\":2791:3340   */\n    tag_39:\n        /* \"#utility.yul\":2966:2970   */\n      0x00\n        /* \"#utility.yul\":3004:3007   */\n      0x80\n        /* \"#utility.yul\":2993:3002   */\n      dup3\n        /* \"#utility.yul\":2989:3008   */\n      add\n        /* \"#utility.yul\":2981:3008   */\n      swap1\n      pop\n        /* \"#utility.yul\":3018:3089   */\n      tag_188\n        /* \"#utility.yul\":3086:3087   */\n      0x00\n        /* \"#utility.yul\":3075:3084   */\n      dup4\n        /* \"#utility.yul\":3071:3088   */\n      add\n        /* \"#utility.yul\":3062:3068   */\n      dup8\n        /* \"#utility.yul\":3018:3089   */\n      tag_133\n      jump\t// in\n    tag_188:\n        /* \"#utility.yul\":3099:3171   */\n      tag_189\n        /* \"#utility.yul\":3167:3169   */\n      0x20\n        /* \"#utility.yul\":3156:3165   */\n      dup4\n        /* \"#utility.yul\":3152:3170   */\n      add\n        /* \"#utility.yul\":3143:3149   */\n      dup7\n        /* \"#utility.yul\":3099:3171   */\n      tag_133\n      jump\t// in\n    tag_189:\n        /* \"#utility.yul\":3181:3251   */\n      tag_190\n        /* \"#utility.yul\":3247:3249   */\n      0x40\n        /* \"#utility.yul\":3236:3245   */\n      dup4\n        /* \"#utility.yul\":3232:3250   */\n      add\n        /* \"#utility.yul\":3223:3229   */\n      dup6\n        /* \"#utility.yul\":3181:3251   */\n      tag_137\n      jump\t// in\n    tag_190:\n        /* \"#utility.yul\":3261:3333   */\n      tag_191\n        /* \"#utility.yul\":3329:3331   */\n      0x60\n        /* \"#utility.yul\":3318:3327   */\n      dup4\n        /* \"#utility.yul\":3314:3332   */\n      add\n        /* \"#utility.yul\":3305:3311   */\n      dup5\n        /* \"#utility.yul\":3261:3333   */\n      tag_133\n      jump\t// in\n    tag_191:\n        /* \"#utility.yul\":2791:3340   */\n      swap6\n      swap5\n      pop\n      pop\n      pop\n      pop\n      pop\n      jump\t// out\n        /* \"#utility.yul\":3346:3526   */\n    tag_138:\n        /* \"#utility.yul\":3394:3471   */\n      0x4e487b7100000000000000000000000000000000000000000000000000000000\n        /* \"#utility.yul\":3391:3392   */\n      0x00\n        /* \"#utility.yul\":3384:3472   */\n      mstore\n        /* \"#utility.yul\":3491:3495   */\n      0x11\n        /* \"#utility.yul\":3488:3489   */\n      0x04\n        /* \"#utility.yul\":3481:3496   */\n      mstore\n        /* \"#utility.yul\":3515:3519   */\n      0x24\n        /* \"#utility.yul\":3512:3513   */\n      0x00\n        /* \"#utility.yul\":3505:3520   */\n      revert\n        /* \"#utility.yul\":3532:3837   */\n    tag_43:\n        /* \"#utility.yul\":3572:3575   */\n      0x00\n        /* \"#utility.yul\":3591:3611   */\n      tag_194\n        /* \"#utility.yul\":3609:3610   */\n      dup3\n        /* \"#utility.yul\":3591:3611   */\n      tag_132\n      jump\t// in\n    tag_194:\n        /* \"#utility.yul\":3586:3611   */\n      swap2\n      pop\n        /* \"#utility.yul\":3625:3645   */\n      tag_195\n        /* \"#utility.yul\":3643:3644   */\n      dup4\n        /* \"#utility.yul\":3625:3645   */\n      tag_132\n      jump\t// in\n    tag_195:\n        /* \"#utility.yul\":3620:3645   */\n      swap3\n      pop\n        /* \"#utility.yul\":3779:3780   */\n      dup3\n        /* \"#utility.yul\":3711:3777   */\n      0xffffffffffffffffffffffffffffffffffffffffffffffffffffffffffffffff\n        /* \"#utility.yul\":3707:3781   */\n      sub\n        /* \"#utility.yul\":3704:3705   */\n      dup3\n        /* \"#utility.yul\":3701:3782   */\n      gt\n        /* \"#utility.yul\":3698:3805   */\n      iszero\n      tag_196\n      jumpi\n        /* \"#utility.yul\":3785:3803   */\n      tag_197\n      tag_138\n      jump\t// in\n    tag_197:\n        /* \"#utility.yul\":3698:3805   */\n    tag_196:\n        /* \"#utility.yul\":3829:3830   */\n      dup3\n        /* \"#utility.yul\":3826:3827   */\n      dup3\n        /* \"#utility.yul\":3822:3831   */\n      add\n        /* \"#utility.yul\":3815:3831   */\n      swap1\n      pop\n        /* \"#utility.yul\":3532:3837   */\n      swap3\n      swap2\n      pop\n      pop\n      jump\t// out\n        /* \"#utility.yul\":3843:4034   */\n    tag_47:\n        /* \"#utility.yul\":3883:3887   */\n      0x00\n        /* \"#utility.yul\":3903:3923   */\n      tag_199\n        /* \"#utility.yul\":3921:3922   */\n      dup3\n        /* \"#utility.yul\":3903:3923   */\n      tag_132\n      jump\t// in\n    tag_199:\n        /* \"#utility.yul\":3898:3923   */\n      swap2\n      pop\n        /* \"#utility.yul\":3937:3957   */\n      tag_200\n        /* \"#utility.yul\":3955:3956   */\n      dup4\n        /* \"#utility.yul\":3937:3957   */\n      tag_132\n      jump\t// in\n    tag_200:\n        /* \"#utility.yul\":3932:3957   */\n      swap3\n      pop\n        /* \"#utility.yul\":3976:3977   */\n      dup3\n        /* \"#utility.yul\":3973:3974   */\n      dup3\n        /* \"#utility.yul\":3970:3978   */\n      lt\n        /* \"#utility.yul\":3967:4001   */\n      iszero\n      tag_201\n      jumpi\n        /* \"#utility.yul\":3981:3999   */\n      tag_202\n      tag_138\n      jump\t// in\n    tag_202:\n        /* \"#utility.yul\":3967:4001   */\n    tag_201:\n        /* \"#utility.yul\":4026:4027   */\n      dup3\n        /* \"#utility.yul\":4023:4024   */\n      dup3\n        /* \"#utility.yul\":4019:4028   */\n      sub\n        /* \"#utility.yul\":4011:4028   */\n      swap1\n      pop\n        /* \"#utility.yul\":3843:4034   */\n      swap3\n      swap2\n      pop\n      pop\n      jump\t// out\n        /* \"#utility.yul\":4040:4220   */\n    tag_50:\n        /* \"#utility.yul\":4088:4165   */\n      0x4e487b7100000000000000000000000000000000000000000000000000000000\n        /* \"#utility.yul\":4085:4086   */\n      0x00\n        /* \"#utility.yul\":4078:4166   */\n      mstore\n        /* \"#utility.yul\":4185:4189   */\n      0x32\n        /* \"#utility.yul\":4182:4183   */\n      0x04\n        /* \"#utility.yul\":4175:4190   */\n      mstore\n        /* \"#utility.yul\":4209:4213   */\n      0x24\n        /* \"#utility.yul\":4206:4207   */\n      0x00\n        /* \"#utility.yul\":4199:4214   */\n      revert\n        /* \"#utility.yul\":4226:4574   */\n    tag_65:\n        /* \"#utility.yul\":4266:4273   */\n      0x00\n        /* \"#utility.yul\":4289:4309   */\n      tag_205\n        /* \"#utility.yul\":4307:4308   */\n      dup3\n        /* \"#utility.yul\":4289:4309   */\n      tag_132\n      jump\t// in\n    tag_205:\n        /* \"#utility.yul\":4284:4309   */\n      swap2\n      pop\n        /* \"#utility.yul\":4323:4343   */\n      tag_206\n        /* \"#utility.yul\":4341:4342   */\n      dup4\n        /* \"#utility.yul\":4323:4343   */\n      tag_132\n      jump\t// in\n    tag_206:\n        /* \"#utility.yul\":4318:4343   */\n      swap3\n      pop\n        /* \"#utility.yul\":4511:4512   */\n      dup2\n        /* \"#utility.yul\":4443:4509   */\n      0xffffffffffffffffffffffffffffffffffffffffffffffffffffffffffffffff\n        /* \"#utility.yul\":4439:4513   */\n      div\n        /* \"#utility.yul\":4436:4437   */\n      dup4\n        /* \"#utility.yul\":4433:4514   */\n      gt\n        /* \"#utility.yul\":4428:4429   */\n      dup3\n        /* \"#utility.yul\":4421:4430   */\n      iszero\n        /* \"#utility.yul\":4414:4431   */\n      iszero\n        /* \"#utility.yul\":4410:4515   */\n      and\n        /* \"#utility.yul\":4407:4538   */\n      iszero\n      tag_207\n      jumpi\n        /* \"#utility.yul\":4518:4536   */\n      tag_208\n      tag_138\n      jump\t// in\n    tag_208:\n        /* \"#utility.yul\":4407:4538   */\n    tag_207:\n        /* \"#utility.yul\":4566:4567   */\n      dup3\n        /* \"#utility.yul\":4563:4564   */\n      dup3\n        /* \"#utility.yul\":4559:4568   */\n      mul\n        /* \"#utility.yul\":4548:4568   */\n      swap1\n      pop\n        /* \"#utility.yul\":4226:4574   */\n      swap3\n      swap2\n      pop\n      pop\n      jump\t// out\n        /* \"#utility.yul\":4580:4760   */\n    tag_139:\n        /* \"#utility.yul\":4628:4705   */\n      0x4e487b7100000000000000000000000000000000000000000000000000000000\n        /* \"#utility.yul\":4625:4626   */\n      0x00\n        /* \"#utility.yul\":4618:4706   */\n      mstore\n        /* \"#utility.yul\":4725:4729   */\n      0x12\n        /* \"#utility.yul\":4722:4723   */\n      0x04\n        /* \"#utility.yul\":4715:4730   */\n      mstore\n        /* \"#utility.yul\":4749:4753   */\n      0x24\n        /* \"#utility.yul\":4746:4747   */\n      0x00\n        /* \"#utility.yul\":4739:4754   */\n      revert\n        /* \"#utility.yul\":4766:4951   */\n    tag_67:\n        /* \"#utility.yul\":4806:4807   */\n      0x00\n        /* \"#utility.yul\":4823:4843   */\n      tag_211\n        /* \"#utility.yul\":4841:4842   */\n      dup3\n        /* \"#utility.yul\":4823:4843   */\n      tag_132\n      jump\t// in\n    tag_211:\n        /* \"#utility.yul\":4818:4843   */\n      swap2\n      pop\n        /* \"#utility.yul\":4857:4877   */\n      tag_212\n        /* \"#utility.yul\":4875:4876   */\n      dup4\n        /* \"#utility.yul\":4857:4877   */\n      tag_132\n      jump\t// in\n    tag_212:\n        /* \"#utility.yul\":4852:4877   */\n      swap3\n      pop\n        /* \"#utility.yul\":4896:4897   */\n      dup3\n        /* \"#utility.yul\":4886:4921   */\n      tag_213\n      jumpi\n        /* \"#utility.yul\":4901:4919   */\n      tag_214\n      tag_139\n      jump\t// in\n    tag_214:\n        /* \"#utility.yul\":4886:4921   */\n    tag_213:\n        /* \"#utility.yul\":4943:4944   */\n      dup3\n        /* \"#utility.yul\":4940:4941   */\n      dup3\n        /* \"#utility.yul\":4936:4945   */\n      div\n        /* \"#utility.yul\":4931:4945   */\n      swap1\n      pop\n        /* \"#utility.yul\":4766:4951   */\n      swap3\n      swap2\n      pop\n      pop\n      jump\t// out\n        /* \"#utility.yul\":4957:5126   */\n    tag_140:\n        /* \"#utility.yul\":5041:5052   */\n      0x00\n        /* \"#utility.yul\":5075:5081   */\n      dup3\n        /* \"#utility.yul\":5070:5073   */\n      dup3\n        /* \"#utility.yul\":5063:5082   */\n      mstore\n        /* \"#utility.yul\":5115:5119   */\n      0x20\n        /* \"#utility.yul\":5110:5113   */\n      dup3\n        /* \"#utility.yul\":5106:5120   */\n      add\n        /* \"#utility.yul\":5091:5120   */\n      swap1\n      pop\n        /* \"#utility.yul\":4957:5126   */\n      swap3\n      swap2\n      pop\n      pop\n      jump\t// out\n        /* \"#utility.yul\":5132:5314   */\n    tag_141:\n        /* \"#utility.yul\":5272:5306   */\n      0x4f776e61626c653a2063616c6c6572206973206e6f7420746865206f776e6572\n        /* \"#utility.yul\":5268:5269   */\n      0x00\n        /* \"#utility.yul\":5260:5266   */\n      dup3\n        /* \"#utility.yul\":5256:5270   */\n      add\n        /* \"#utility.yul\":5249:5307   */\n      mstore\n        /* \"#utility.yul\":5132:5314   */\n      pop\n      jump\t// out\n        /* \"#utility.yul\":5320:5686   */\n    tag_142:\n        /* \"#utility.yul\":5462:5465   */\n      0x00\n        /* \"#utility.yul\":5483:5550   */\n      tag_218\n        /* \"#utility.yul\":5547:5549   */\n      0x20\n        /* \"#utility.yul\":5542:5545   */\n      dup4\n        /* \"#utility.yul\":5483:5550   */\n      tag_140\n      jump\t// in\n    tag_218:\n        /* \"#utility.yul\":5476:5550   */\n      swap2\n      pop\n        /* \"#utility.yul\":5559:5652   */\n      tag_219\n        /* \"#utility.yul\":5648:5651   */\n      dup3\n        /* \"#utility.yul\":5559:5652   */\n      tag_141\n      jump\t// in\n    tag_219:\n        /* \"#utility.yul\":5677:5679   */\n      0x20\n        /* \"#utility.yul\":5672:5675   */\n      dup3\n        /* \"#utility.yul\":5668:5680   */\n      add\n        /* \"#utility.yul\":5661:5680   */\n      swap1\n      pop\n        /* \"#utility.yul\":5320:5686   */\n      swap2\n      swap1\n      pop\n      jump\t// out\n        /* \"#utility.yul\":5692:6111   */\n    tag_81:\n        /* \"#utility.yul\":5858:5862   */\n      0x00\n        /* \"#utility.yul\":5896:5898   */\n      0x20\n        /* \"#utility.yul\":5885:5894   */\n      dup3\n        /* \"#utility.yul\":5881:5899   */\n      add\n        /* \"#utility.yul\":5873:5899   */\n      swap1\n      pop\n        /* \"#utility.yul\":5945:5954   */\n      dup2\n        /* \"#utility.yul\":5939:5943   */\n      dup2\n        /* \"#utility.yul\":5935:5955   */\n      sub\n        /* \"#utility.yul\":5931:5932   */\n      0x00\n        /* \"#utility.yul\":5920:5929   */\n      dup4\n        /* \"#utility.yul\":5916:5933   */\n      add\n        /* \"#utility.yul\":5909:5956   */\n      mstore\n        /* \"#utility.yul\":5973:6104   */\n      tag_221\n        /* \"#utility.yul\":6099:6103   */\n      dup2\n        /* \"#utility.yul\":5973:6104   */\n      tag_142\n      jump\t// in\n    tag_221:\n        /* \"#utility.yul\":5965:6104   */\n      swap1\n      pop\n        /* \"#utility.yul\":5692:6111   */\n      swap2\n      swap1\n      pop\n      jump\t// out\n        /* \"#utility.yul\":6117:6342   */\n    tag_143:\n        /* \"#utility.yul\":6257:6291   */\n      0x4f776e61626c653a206e6577206f776e657220697320746865207a65726f2061\n        /* \"#utility.yul\":6253:6254   */\n      0x00\n        /* \"#utility.yul\":6245:6251   */\n      dup3\n        /* \"#utility.yul\":6241:6255   */\n      add\n        /* \"#utility.yul\":6234:6292   */\n      mstore\n        /* \"#utility.yul\":6326:6334   */\n      0x6464726573730000000000000000000000000000000000000000000000000000\n        /* \"#utility.yul\":6321:6323   */\n      0x20\n        /* \"#utility.yul\":6313:6319   */\n      dup3\n        /* \"#utility.yul\":6309:6324   */\n      add\n        /* \"#utility.yul\":6302:6335   */\n      mstore\n        /* \"#utility.yul\":6117:6342   */\n      pop\n      jump\t// out\n        /* \"#utility.yul\":6348:6714   */\n    tag_144:\n        /* \"#utility.yul\":6490:6493   */\n      0x00\n        /* \"#utility.yul\":6511:6578   */\n      tag_224\n        /* \"#utility.yul\":6575:6577   */\n      0x26\n        /* \"#utility.yul\":6570:6573   */\n      dup4\n        /* \"#utility.yul\":6511:6578   */\n      tag_140\n      jump\t// in\n    tag_224:\n        /* \"#utility.yul\":6504:6578   */\n      swap2\n      pop\n        /* \"#utility.yul\":6587:6680   */\n      tag_225\n        /* \"#utility.yul\":6676:6679   */\n      dup3\n        /* \"#utility.yul\":6587:6680   */\n      tag_143\n      jump\t// in\n    tag_225:\n        /* \"#utility.yul\":6705:6707   */\n      0x40\n        /* \"#utility.yul\":6700:6703   */\n      dup3\n        /* \"#utility.yul\":6696:6708   */\n      add\n        /* \"#utility.yul\":6689:6708   */\n      swap1\n      pop\n        /* \"#utility.yul\":6348:6714   */\n      swap2\n      swap1\n      pop\n      jump\t// out\n        /* \"#utility.yul\":6720:7139   */\n    tag_109:\n        /* \"#utility.yul\":6886:6890   */\n      0x00\n        /* \"#utility.yul\":6924:6926   */\n      0x20\n        /* \"#utility.yul\":6913:6922   */\n      dup3\n        /* \"#utility.yul\":6909:6927   */\n      add\n        /* \"#utility.yul\":6901:6927   */\n      swap1\n      pop\n        /* \"#utility.yul\":6973:6982   */\n      dup2\n        /* \"#utility.yul\":6967:6971   */\n      dup2\n        /* \"#utility.yul\":6963:6983   */\n      sub\n        /* \"#utility.yul\":6959:6960   */\n      0x00\n        /* \"#utility.yul\":6948:6957   */\n      dup4\n        /* \"#utility.yul\":6944:6961   */\n      add\n        /* \"#utility.yul\":6937:6984   */\n      mstore\n        /* \"#utility.yul\":7001:7132   */\n      tag_227\n        /* \"#utility.yul\":7127:7131   */\n      dup2\n        /* \"#utility.yul\":7001:7132   */\n      tag_144\n      jump\t// in\n    tag_227:\n        /* \"#utility.yul\":6993:7132   */\n      swap1\n      pop\n        /* \"#utility.yul\":6720:7139   */\n      swap2\n      swap1\n      pop\n      jump\t// out\n        /* \"#utility.yul\":7145:7292   */\n    tag_145:\n        /* \"#utility.yul\":7246:7257   */\n      0x00\n        /* \"#utility.yul\":7283:7286   */\n      dup2\n        /* \"#utility.yul\":7268:7286   */\n      swap1\n      pop\n        /* \"#utility.yul\":7145:7292   */\n      swap3\n      swap2\n      pop\n      pop\n      jump\t// out\n        /* \"#utility.yul\":7298:7412   */\n    tag_146:\n      pop\n      jump\t// out\n        /* \"#utility.yul\":7418:7816   */\n    tag_147:\n        /* \"#utility.yul\":7577:7580   */\n      0x00\n        /* \"#utility.yul\":7598:7681   */\n      tag_231\n        /* \"#utility.yul\":7679:7680   */\n      0x00\n        /* \"#utility.yul\":7674:7677   */\n      dup4\n        /* \"#utility.yul\":7598:7681   */\n      tag_145\n      jump\t// in\n    tag_231:\n        /* \"#utility.yul\":7591:7681   */\n      swap2\n      pop\n        /* \"#utility.yul\":7690:7783   */\n      tag_232\n        /* \"#utility.yul\":7779:7782   */\n      dup3\n        /* \"#utility.yul\":7690:7783   */\n      tag_146\n      jump\t// in\n    tag_232:\n        /* \"#utility.yul\":7808:7809   */\n      0x00\n        /* \"#utility.yul\":7803:7806   */\n      dup3\n        /* \"#utility.yul\":7799:7810   */\n      add\n        /* \"#utility.yul\":7792:7810   */\n      swap1\n      pop\n        /* \"#utility.yul\":7418:7816   */\n      swap2\n      swap1\n      pop\n      jump\t// out\n        /* \"#utility.yul\":7822:8201   */\n    tag_115:\n        /* \"#utility.yul\":8006:8009   */\n      0x00\n        /* \"#utility.yul\":8028:8175   */\n      tag_234\n        /* \"#utility.yul\":8171:8174   */\n      dup3\n        /* \"#utility.yul\":8028:8175   */\n      tag_147\n      jump\t// in\n    tag_234:\n        /* \"#utility.yul\":8021:8175   */\n      swap2\n      pop\n        /* \"#utility.yul\":8192:8195   */\n      dup2\n        /* \"#utility.yul\":8185:8195   */\n      swap1\n      pop\n        /* \"#utility.yul\":7822:8201   */\n      swap2\n      swap1\n      pop\n      jump\t// out\n        /* \"#utility.yul\":8207:8429   */\n    tag_148:\n        /* \"#utility.yul\":8347:8381   */\n      0x5472616e7366657248656c7065723a20424e425f5452414e534645525f464149\n        /* \"#utility.yul\":8343:8344   */\n      0x00\n        /* \"#utility.yul\":8335:8341   */\n      dup3\n        /* \"#utility.yul\":8331:8345   */\n      add\n        /* \"#utility.yul\":8324:8382   */\n      mstore\n        /* \"#utility.yul\":8416:8421   */\n      0x4c45440000000000000000000000000000000000000000000000000000000000\n        /* \"#utility.yul\":8411:8413   */\n      0x20\n        /* \"#utility.yul\":8403:8409   */\n      dup3\n        /* \"#utility.yul\":8399:8414   */\n      add\n        /* \"#utility.yul\":8392:8422   */\n      mstore\n        /* \"#utility.yul\":8207:8429   */\n      pop\n      jump\t// out\n        /* \"#utility.yul\":8435:8801   */\n    tag_149:\n        /* \"#utility.yul\":8577:8580   */\n      0x00\n        /* \"#utility.yul\":8598:8665   */\n      tag_237\n        /* \"#utility.yul\":8662:8664   */\n      0x23\n        /* \"#utility.yul\":8657:8660   */\n      dup4\n        /* \"#utility.yul\":8598:8665   */\n      tag_140\n      jump\t// in\n    tag_237:\n        /* \"#utility.yul\":8591:8665   */\n      swap2\n      pop\n        /* \"#utility.yul\":8674:8767   */\n      tag_238\n        /* \"#utility.yul\":8763:8766   */\n      dup3\n        /* \"#utility.yul\":8674:8767   */\n      tag_148\n      jump\t// in\n    tag_238:\n        /* \"#utility.yul\":8792:8794   */\n      0x40\n        /* \"#utility.yul\":8787:8790   */\n      dup3\n        /* \"#utility.yul\":8783:8795   */\n      add\n        /* \"#utility.yul\":8776:8795   */\n      swap1\n      pop\n        /* \"#utility.yul\":8435:8801   */\n      swap2\n      swap1\n      pop\n      jump\t// out\n        /* \"#utility.yul\":8807:9226   */\n    tag_121:\n        /* \"#utility.yul\":8973:8977   */\n      0x00\n        /* \"#utility.yul\":9011:9013   */\n      0x20\n        /* \"#utility.yul\":9000:9009   */\n      dup3\n        /* \"#utility.yul\":8996:9014   */\n      add\n        /* \"#utility.yul\":8988:9014   */\n      swap1\n      pop\n        /* \"#utility.yul\":9060:9069   */\n      dup2\n        /* \"#utility.yul\":9054:9058   */\n      dup2\n        /* \"#utility.yul\":9050:9070   */\n      sub\n        /* \"#utility.yul\":9046:9047   */\n      0x00\n        /* \"#utility.yul\":9035:9044   */\n      dup4\n        /* \"#utility.yul\":9031:9048   */\n      add\n        /* \"#utility.yul\":9024:9071   */\n      mstore\n        /* \"#utility.yul\":9088:9219   */\n      tag_240\n        /* \"#utility.yul\":9214:9218   */\n      dup2\n        /* \"#utility.yul\":9088:9219   */\n      tag_149\n      jump\t// in\n    tag_240:\n        /* \"#utility.yul\":9080:9219   */\n      swap1\n      pop\n        /* \"#utility.yul\":8807:9226   */\n      swap2\n      swap1\n      pop\n      jump\t// out\n\n    auxdata: 0xa264697066735822122070bd7a900c1e6664efdc8dfaa87c913e60c07fbcd26018f4decfacd83a0ef4a964736f6c634300080e0033\n}\n",
				"bytecode": {
					"linkReferences": {},
					"object": "60806040526201518060015534801561001757600080fd5b5061003461002961003960201b60201c565b61004160201b60201c565b610105565b600033905090565b60008060009054906101000a900473ffffffffffffffffffffffffffffffffffffffff169050816000806101000a81548173ffffffffffffffffffffffffffffffffffffffff021916908373ffffffffffffffffffffffffffffffffffffffff1602179055508173ffffffffffffffffffffffffffffffffffffffff168173ffffffffffffffffffffffffffffffffffffffff167f8be0079c531659141344cd1fd0a4f28419497f9722a3daafe3b4186f6b6457e060405160405180910390a35050565b610edb806101146000396000f3fe6080604052600436106100705760003560e01c80638da5cb5b1161004e5780638da5cb5b146100b2578063b3743586146100dd578063f2fde38b14610108578063fd5e6dd11461013157610070565b80633a4b66f11461007557806351cff8d91461007f578063715018a61461009b575b600080fd5b61007d610171565b005b610099600480360381019061009491906109d4565b6103db565b005b3480156100a757600080fd5b506100b0610506565b005b3480156100be57600080fd5b506100c761058e565b6040516100d49190610a10565b60405180910390f35b3480156100e957600080fd5b506100f26105b7565b6040516100ff9190610a44565b60405180910390f35b34801561011457600080fd5b5061012f600480360381019061012a91906109d4565b6106ad565b005b34801561013d57600080fd5b5061015860048036038101906101539190610a8b565b6107a4565b6040516101689493929190610ad7565b60405180910390f35b6000600360003373ffffffffffffffffffffffffffffffffffffffff1673ffffffffffffffffffffffffffffffffffffffff16815260200190815260200160002054036102b4576002604051806080016040528034815260200160008152602001600163ffffffff168152602001600154426101ed9190610b4b565b8152509080600181540180825580915050600190039060005260206000209060040201600090919091909150600082015181600001556020820151816001015560408201518160020160006101000a81548163ffffffff021916908363ffffffff1602179055506060820151816003015550506000600280549050905080600360003373ffffffffffffffffffffffffffffffffffffffff1673ffffffffffffffffffffffffffffffffffffffff168152602001908152602001600020819055505061038b565b60006001600360003373ffffffffffffffffffffffffffffffffffffffff1673ffffffffffffffffffffffffffffffffffffffff168152602001908152602001600020546103029190610ba1565b9050346002828154811061031957610318610bd5565b5b906000526020600020906004020160000160008282546103399190610b4b565b925050819055506001544261034e9190610b4b565b6002828154811061036257610361610bd5565b5b906000526020600020906004020160030160008282546103829190610b4b565b92505081905550505b3373ffffffffffffffffffffffffffffffffffffffff167f6bd5a68a4a6cc22607f1514ca193faf12a458c6e5bdf1fdb7a736b2e813c25d9346040516103d19190610a44565b60405180910390a2565b60006001600360008473ffffffffffffffffffffffffffffffffffffffff1673ffffffffffffffffffffffffffffffffffffffff168152602001908152602001600020546104299190610ba1565b90506000606460036002848154811061044557610444610bd5565b5b9060005260206000209060040201600001546104619190610c04565b61046b9190610c8d565b9050806002838154811061048257610481610bd5565b5b906000526020600020906004020160010160008282546104a29190610b4b565b925050819055506104b333826107f4565b3373ffffffffffffffffffffffffffffffffffffffff167f5dba113b49cfa7c90315e8e604e6b506f7abcb909b01dcb19ec39005086e68fc826040516104f99190610a44565b60405180910390a2505050565b61050e6108a5565b73ffffffffffffffffffffffffffffffffffffffff1661052c61058e565b73ffffffffffffffffffffffffffffffffffffffff1614610582576040517f08c379a000000000000000000000000000000000000000000000000000000000815260040161057990610d1b565b60405180910390fd5b61058c60006108ad565b565b60008060009054906101000a900473ffffffffffffffffffffffffffffffffffffffff16905090565b6000806001600360003373ffffffffffffffffffffffffffffffffffffffff1673ffffffffffffffffffffffffffffffffffffffff168152602001908152602001600020546106069190610ba1565b9050426002828154811061061d5761061c610bd5565b5b906000526020600020906004020160030154101561067657600154426106439190610b4b565b6002828154811061065757610656610bd5565b5b906000526020600020906004020160030181905550610675336103db565b5b6002818154811061068a57610689610bd5565b5b906000526020600020906004020160030154426106a79190610ba1565b91505090565b6106b56108a5565b73ffffffffffffffffffffffffffffffffffffffff166106d361058e565b73ffffffffffffffffffffffffffffffffffffffff1614610729576040517f08c379a000000000000000000000000000000000000000000000000000000000815260040161072090610d1b565b60405180910390fd5b600073ffffffffffffffffffffffffffffffffffffffff168173ffffffffffffffffffffffffffffffffffffffff1603610798576040517f08c379a000000000000000000000000000000000000000000000000000000000815260040161078f90610dad565b60405180910390fd5b6107a1816108ad565b50565b600281815481106107b457600080fd5b90600052602060002090600402016000915090508060000154908060010154908060020160009054906101000a900463ffffffff16908060030154905084565b60008273ffffffffffffffffffffffffffffffffffffffff168260405161081a90610dfe565b60006040518083038185875af1925050503d8060008114610857576040519150601f19603f3d011682016040523d82523d6000602084013e61085c565b606091505b50509050806108a0576040517f08c379a000000000000000000000000000000000000000000000000000000000815260040161089790610e85565b60405180910390fd5b505050565b600033905090565b60008060009054906101000a900473ffffffffffffffffffffffffffffffffffffffff169050816000806101000a81548173ffffffffffffffffffffffffffffffffffffffff021916908373ffffffffffffffffffffffffffffffffffffffff1602179055508173ffffffffffffffffffffffffffffffffffffffff168173ffffffffffffffffffffffffffffffffffffffff167f8be0079c531659141344cd1fd0a4f28419497f9722a3daafe3b4186f6b6457e060405160405180910390a35050565b600080fd5b600073ffffffffffffffffffffffffffffffffffffffff82169050919050565b60006109a182610976565b9050919050565b6109b181610996565b81146109bc57600080fd5b50565b6000813590506109ce816109a8565b92915050565b6000602082840312156109ea576109e9610971565b5b60006109f8848285016109bf565b91505092915050565b610a0a81610996565b82525050565b6000602082019050610a256000830184610a01565b92915050565b6000819050919050565b610a3e81610a2b565b82525050565b6000602082019050610a596000830184610a35565b92915050565b610a6881610a2b565b8114610a7357600080fd5b50565b600081359050610a8581610a5f565b92915050565b600060208284031215610aa157610aa0610971565b5b6000610aaf84828501610a76565b91505092915050565b600063ffffffff82169050919050565b610ad181610ab8565b82525050565b6000608082019050610aec6000830187610a35565b610af96020830186610a35565b610b066040830185610ac8565b610b136060830184610a35565b95945050505050565b7f4e487b7100000000000000000000000000000000000000000000000000000000600052601160045260246000fd5b6000610b5682610a2b565b9150610b6183610a2b565b9250827fffffffffffffffffffffffffffffffffffffffffffffffffffffffffffffffff03821115610b9657610b95610b1c565b5b828201905092915050565b6000610bac82610a2b565b9150610bb783610a2b565b925082821015610bca57610bc9610b1c565b5b828203905092915050565b7f4e487b7100000000000000000000000000000000000000000000000000000000600052603260045260246000fd5b6000610c0f82610a2b565b9150610c1a83610a2b565b9250817fffffffffffffffffffffffffffffffffffffffffffffffffffffffffffffffff0483118215151615610c5357610c52610b1c565b5b828202905092915050565b7f4e487b7100000000000000000000000000000000000000000000000000000000600052601260045260246000fd5b6000610c9882610a2b565b9150610ca383610a2b565b925082610cb357610cb2610c5e565b5b828204905092915050565b600082825260208201905092915050565b7f4f776e61626c653a2063616c6c6572206973206e6f7420746865206f776e6572600082015250565b6000610d05602083610cbe565b9150610d1082610ccf565b602082019050919050565b60006020820190508181036000830152610d3481610cf8565b9050919050565b7f4f776e61626c653a206e6577206f776e657220697320746865207a65726f206160008201527f6464726573730000000000000000000000000000000000000000000000000000602082015250565b6000610d97602683610cbe565b9150610da282610d3b565b604082019050919050565b60006020820190508181036000830152610dc681610d8a565b9050919050565b600081905092915050565b50565b6000610de8600083610dcd565b9150610df382610dd8565b600082019050919050565b6000610e0982610ddb565b9150819050919050565b7f5472616e7366657248656c7065723a20424e425f5452414e534645525f46414960008201527f4c45440000000000000000000000000000000000000000000000000000000000602082015250565b6000610e6f602383610cbe565b9150610e7a82610e13565b604082019050919050565b60006020820190508181036000830152610e9e81610e62565b905091905056fea264697066735822122070bd7a900c1e6664efdc8dfaa87c913e60c07fbcd26018f4decfacd83a0ef4a964736f6c634300080e0033",
					"opcodes": "PUSH1 0x80 PUSH1 0x40 MSTORE PUSH3 0x15180 PUSH1 0x1 SSTORE CALLVALUE DUP1 ISZERO PUSH2 0x17 JUMPI PUSH1 0x0 DUP1 REVERT JUMPDEST POP PUSH2 0x34 PUSH2 0x29 PUSH2 0x39 PUSH1 0x20 SHL PUSH1 0x20 SHR JUMP JUMPDEST PUSH2 0x41 PUSH1 0x20 SHL PUSH1 0x20 SHR JUMP JUMPDEST PUSH2 0x105 JUMP JUMPDEST PUSH1 0x0 CALLER SWAP1 POP SWAP1 JUMP JUMPDEST PUSH1 0x0 DUP1 PUSH1 0x0 SWAP1 SLOAD SWAP1 PUSH2 0x100 EXP SWAP1 DIV PUSH20 0xFFFFFFFFFFFFFFFFFFFFFFFFFFFFFFFFFFFFFFFF AND SWAP1 POP DUP2 PUSH1 0x0 DUP1 PUSH2 0x100 EXP DUP2 SLOAD DUP2 PUSH20 0xFFFFFFFFFFFFFFFFFFFFFFFFFFFFFFFFFFFFFFFF MUL NOT AND SWAP1 DUP4 PUSH20 0xFFFFFFFFFFFFFFFFFFFFFFFFFFFFFFFFFFFFFFFF AND MUL OR SWAP1 SSTORE POP DUP2 PUSH20 0xFFFFFFFFFFFFFFFFFFFFFFFFFFFFFFFFFFFFFFFF AND DUP2 PUSH20 0xFFFFFFFFFFFFFFFFFFFFFFFFFFFFFFFFFFFFFFFF AND PUSH32 0x8BE0079C531659141344CD1FD0A4F28419497F9722A3DAAFE3B4186F6B6457E0 PUSH1 0x40 MLOAD PUSH1 0x40 MLOAD DUP1 SWAP2 SUB SWAP1 LOG3 POP POP JUMP JUMPDEST PUSH2 0xEDB DUP1 PUSH2 0x114 PUSH1 0x0 CODECOPY PUSH1 0x0 RETURN INVALID PUSH1 0x80 PUSH1 0x40 MSTORE PUSH1 0x4 CALLDATASIZE LT PUSH2 0x70 JUMPI PUSH1 0x0 CALLDATALOAD PUSH1 0xE0 SHR DUP1 PUSH4 0x8DA5CB5B GT PUSH2 0x4E JUMPI DUP1 PUSH4 0x8DA5CB5B EQ PUSH2 0xB2 JUMPI DUP1 PUSH4 0xB3743586 EQ PUSH2 0xDD JUMPI DUP1 PUSH4 0xF2FDE38B EQ PUSH2 0x108 JUMPI DUP1 PUSH4 0xFD5E6DD1 EQ PUSH2 0x131 JUMPI PUSH2 0x70 JUMP JUMPDEST DUP1 PUSH4 0x3A4B66F1 EQ PUSH2 0x75 JUMPI DUP1 PUSH4 0x51CFF8D9 EQ PUSH2 0x7F JUMPI DUP1 PUSH4 0x715018A6 EQ PUSH2 0x9B JUMPI JUMPDEST PUSH1 0x0 DUP1 REVERT JUMPDEST PUSH2 0x7D PUSH2 0x171 JUMP JUMPDEST STOP JUMPDEST PUSH2 0x99 PUSH1 0x4 DUP1 CALLDATASIZE SUB DUP2 ADD SWAP1 PUSH2 0x94 SWAP2 SWAP1 PUSH2 0x9D4 JUMP JUMPDEST PUSH2 0x3DB JUMP JUMPDEST STOP JUMPDEST CALLVALUE DUP1 ISZERO PUSH2 0xA7 JUMPI PUSH1 0x0 DUP1 REVERT JUMPDEST POP PUSH2 0xB0 PUSH2 0x506 JUMP JUMPDEST STOP JUMPDEST CALLVALUE DUP1 ISZERO PUSH2 0xBE JUMPI PUSH1 0x0 DUP1 REVERT JUMPDEST POP PUSH2 0xC7 PUSH2 0x58E JUMP JUMPDEST PUSH1 0x40 MLOAD PUSH2 0xD4 SWAP2 SWAP1 PUSH2 0xA10 JUMP JUMPDEST PUSH1 0x40 MLOAD DUP1 SWAP2 SUB SWAP1 RETURN JUMPDEST CALLVALUE DUP1 ISZERO PUSH2 0xE9 JUMPI PUSH1 0x0 DUP1 REVERT JUMPDEST POP PUSH2 0xF2 PUSH2 0x5B7 JUMP JUMPDEST PUSH1 0x40 MLOAD PUSH2 0xFF SWAP2 SWAP1 PUSH2 0xA44 JUMP JUMPDEST PUSH1 0x40 MLOAD DUP1 SWAP2 SUB SWAP1 RETURN JUMPDEST CALLVALUE DUP1 ISZERO PUSH2 0x114 JUMPI PUSH1 0x0 DUP1 REVERT JUMPDEST POP PUSH2 0x12F PUSH1 0x4 DUP1 CALLDATASIZE SUB DUP2 ADD SWAP1 PUSH2 0x12A SWAP2 SWAP1 PUSH2 0x9D4 JUMP JUMPDEST PUSH2 0x6AD JUMP JUMPDEST STOP JUMPDEST CALLVALUE DUP1 ISZERO PUSH2 0x13D JUMPI PUSH1 0x0 DUP1 REVERT JUMPDEST POP PUSH2 0x158 PUSH1 0x4 DUP1 CALLDATASIZE SUB DUP2 ADD SWAP1 PUSH2 0x153 SWAP2 SWAP1 PUSH2 0xA8B JUMP JUMPDEST PUSH2 0x7A4 JUMP JUMPDEST PUSH1 0x40 MLOAD PUSH2 0x168 SWAP5 SWAP4 SWAP3 SWAP2 SWAP1 PUSH2 0xAD7 JUMP JUMPDEST PUSH1 0x40 MLOAD DUP1 SWAP2 SUB SWAP1 RETURN JUMPDEST PUSH1 0x0 PUSH1 0x3 PUSH1 0x0 CALLER PUSH20 0xFFFFFFFFFFFFFFFFFFFFFFFFFFFFFFFFFFFFFFFF AND PUSH20 0xFFFFFFFFFFFFFFFFFFFFFFFFFFFFFFFFFFFFFFFF AND DUP2 MSTORE PUSH1 0x20 ADD SWAP1 DUP2 MSTORE PUSH1 0x20 ADD PUSH1 0x0 KECCAK256 SLOAD SUB PUSH2 0x2B4 JUMPI PUSH1 0x2 PUSH1 0x40 MLOAD DUP1 PUSH1 0x80 ADD PUSH1 0x40 MSTORE DUP1 CALLVALUE DUP2 MSTORE PUSH1 0x20 ADD PUSH1 0x0 DUP2 MSTORE PUSH1 0x20 ADD PUSH1 0x1 PUSH4 0xFFFFFFFF AND DUP2 MSTORE PUSH1 0x20 ADD PUSH1 0x1 SLOAD TIMESTAMP PUSH2 0x1ED SWAP2 SWAP1 PUSH2 0xB4B JUMP JUMPDEST DUP2 MSTORE POP SWAP1 DUP1 PUSH1 0x1 DUP2 SLOAD ADD DUP1 DUP3 SSTORE DUP1 SWAP2 POP POP PUSH1 0x1 SWAP1 SUB SWAP1 PUSH1 0x0 MSTORE PUSH1 0x20 PUSH1 0x0 KECCAK256 SWAP1 PUSH1 0x4 MUL ADD PUSH1 0x0 SWAP1 SWAP2 SWAP1 SWAP2 SWAP1 SWAP2 POP PUSH1 0x0 DUP3 ADD MLOAD DUP2 PUSH1 0x0 ADD SSTORE PUSH1 0x20 DUP3 ADD MLOAD DUP2 PUSH1 0x1 ADD SSTORE PUSH1 0x40 DUP3 ADD MLOAD DUP2 PUSH1 0x2 ADD PUSH1 0x0 PUSH2 0x100 EXP DUP2 SLOAD DUP2 PUSH4 0xFFFFFFFF MUL NOT AND SWAP1 DUP4 PUSH4 0xFFFFFFFF AND MUL OR SWAP1 SSTORE POP PUSH1 0x60 DUP3 ADD MLOAD DUP2 PUSH1 0x3 ADD SSTORE POP POP PUSH1 0x0 PUSH1 0x2 DUP1 SLOAD SWAP1 POP SWAP1 POP DUP1 PUSH1 0x3 PUSH1 0x0 CALLER PUSH20 0xFFFFFFFFFFFFFFFFFFFFFFFFFFFFFFFFFFFFFFFF AND PUSH20 0xFFFFFFFFFFFFFFFFFFFFFFFFFFFFFFFFFFFFFFFF AND DUP2 MSTORE PUSH1 0x20 ADD SWAP1 DUP2 MSTORE PUSH1 0x20 ADD PUSH1 0x0 KECCAK256 DUP2 SWAP1 SSTORE POP POP PUSH2 0x38B JUMP JUMPDEST PUSH1 0x0 PUSH1 0x1 PUSH1 0x3 PUSH1 0x0 CALLER PUSH20 0xFFFFFFFFFFFFFFFFFFFFFFFFFFFFFFFFFFFFFFFF AND PUSH20 0xFFFFFFFFFFFFFFFFFFFFFFFFFFFFFFFFFFFFFFFF AND DUP2 MSTORE PUSH1 0x20 ADD SWAP1 DUP2 MSTORE PUSH1 0x20 ADD PUSH1 0x0 KECCAK256 SLOAD PUSH2 0x302 SWAP2 SWAP1 PUSH2 0xBA1 JUMP JUMPDEST SWAP1 POP CALLVALUE PUSH1 0x2 DUP3 DUP2 SLOAD DUP2 LT PUSH2 0x319 JUMPI PUSH2 0x318 PUSH2 0xBD5 JUMP JUMPDEST JUMPDEST SWAP1 PUSH1 0x0 MSTORE PUSH1 0x20 PUSH1 0x0 KECCAK256 SWAP1 PUSH1 0x4 MUL ADD PUSH1 0x0 ADD PUSH1 0x0 DUP3 DUP3 SLOAD PUSH2 0x339 SWAP2 SWAP1 PUSH2 0xB4B JUMP JUMPDEST SWAP3 POP POP DUP2 SWAP1 SSTORE POP PUSH1 0x1 SLOAD TIMESTAMP PUSH2 0x34E SWAP2 SWAP1 PUSH2 0xB4B JUMP JUMPDEST PUSH1 0x2 DUP3 DUP2 SLOAD DUP2 LT PUSH2 0x362 JUMPI PUSH2 0x361 PUSH2 0xBD5 JUMP JUMPDEST JUMPDEST SWAP1 PUSH1 0x0 MSTORE PUSH1 0x20 PUSH1 0x0 KECCAK256 SWAP1 PUSH1 0x4 MUL ADD PUSH1 0x3 ADD PUSH1 0x0 DUP3 DUP3 SLOAD PUSH2 0x382 SWAP2 SWAP1 PUSH2 0xB4B JUMP JUMPDEST SWAP3 POP POP DUP2 SWAP1 SSTORE POP POP JUMPDEST CALLER PUSH20 0xFFFFFFFFFFFFFFFFFFFFFFFFFFFFFFFFFFFFFFFF AND PUSH32 0x6BD5A68A4A6CC22607F1514CA193FAF12A458C6E5BDF1FDB7A736B2E813C25D9 CALLVALUE PUSH1 0x40 MLOAD PUSH2 0x3D1 SWAP2 SWAP1 PUSH2 0xA44 JUMP JUMPDEST PUSH1 0x40 MLOAD DUP1 SWAP2 SUB SWAP1 LOG2 JUMP JUMPDEST PUSH1 0x0 PUSH1 0x1 PUSH1 0x3 PUSH1 0x0 DUP5 PUSH20 0xFFFFFFFFFFFFFFFFFFFFFFFFFFFFFFFFFFFFFFFF AND PUSH20 0xFFFFFFFFFFFFFFFFFFFFFFFFFFFFFFFFFFFFFFFF AND DUP2 MSTORE PUSH1 0x20 ADD SWAP1 DUP2 MSTORE PUSH1 0x20 ADD PUSH1 0x0 KECCAK256 SLOAD PUSH2 0x429 SWAP2 SWAP1 PUSH2 0xBA1 JUMP JUMPDEST SWAP1 POP PUSH1 0x0 PUSH1 0x64 PUSH1 0x3 PUSH1 0x2 DUP5 DUP2 SLOAD DUP2 LT PUSH2 0x445 JUMPI PUSH2 0x444 PUSH2 0xBD5 JUMP JUMPDEST JUMPDEST SWAP1 PUSH1 0x0 MSTORE PUSH1 0x20 PUSH1 0x0 KECCAK256 SWAP1 PUSH1 0x4 MUL ADD PUSH1 0x0 ADD SLOAD PUSH2 0x461 SWAP2 SWAP1 PUSH2 0xC04 JUMP JUMPDEST PUSH2 0x46B SWAP2 SWAP1 PUSH2 0xC8D JUMP JUMPDEST SWAP1 POP DUP1 PUSH1 0x2 DUP4 DUP2 SLOAD DUP2 LT PUSH2 0x482 JUMPI PUSH2 0x481 PUSH2 0xBD5 JUMP JUMPDEST JUMPDEST SWAP1 PUSH1 0x0 MSTORE PUSH1 0x20 PUSH1 0x0 KECCAK256 SWAP1 PUSH1 0x4 MUL ADD PUSH1 0x1 ADD PUSH1 0x0 DUP3 DUP3 SLOAD PUSH2 0x4A2 SWAP2 SWAP1 PUSH2 0xB4B JUMP JUMPDEST SWAP3 POP POP DUP2 SWAP1 SSTORE POP PUSH2 0x4B3 CALLER DUP3 PUSH2 0x7F4 JUMP JUMPDEST CALLER PUSH20 0xFFFFFFFFFFFFFFFFFFFFFFFFFFFFFFFFFFFFFFFF AND PUSH32 0x5DBA113B49CFA7C90315E8E604E6B506F7ABCB909B01DCB19EC39005086E68FC DUP3 PUSH1 0x40 MLOAD PUSH2 0x4F9 SWAP2 SWAP1 PUSH2 0xA44 JUMP JUMPDEST PUSH1 0x40 MLOAD DUP1 SWAP2 SUB SWAP1 LOG2 POP POP POP JUMP JUMPDEST PUSH2 0x50E PUSH2 0x8A5 JUMP JUMPDEST PUSH20 0xFFFFFFFFFFFFFFFFFFFFFFFFFFFFFFFFFFFFFFFF AND PUSH2 0x52C PUSH2 0x58E JUMP JUMPDEST PUSH20 0xFFFFFFFFFFFFFFFFFFFFFFFFFFFFFFFFFFFFFFFF AND EQ PUSH2 0x582 JUMPI PUSH1 0x40 MLOAD PUSH32 0x8C379A000000000000000000000000000000000000000000000000000000000 DUP2 MSTORE PUSH1 0x4 ADD PUSH2 0x579 SWAP1 PUSH2 0xD1B JUMP JUMPDEST PUSH1 0x40 MLOAD DUP1 SWAP2 SUB SWAP1 REVERT JUMPDEST PUSH2 0x58C PUSH1 0x0 PUSH2 0x8AD JUMP JUMPDEST JUMP JUMPDEST PUSH1 0x0 DUP1 PUSH1 0x0 SWAP1 SLOAD SWAP1 PUSH2 0x100 EXP SWAP1 DIV PUSH20 0xFFFFFFFFFFFFFFFFFFFFFFFFFFFFFFFFFFFFFFFF AND SWAP1 POP SWAP1 JUMP JUMPDEST PUSH1 0x0 DUP1 PUSH1 0x1 PUSH1 0x3 PUSH1 0x0 CALLER PUSH20 0xFFFFFFFFFFFFFFFFFFFFFFFFFFFFFFFFFFFFFFFF AND PUSH20 0xFFFFFFFFFFFFFFFFFFFFFFFFFFFFFFFFFFFFFFFF AND DUP2 MSTORE PUSH1 0x20 ADD SWAP1 DUP2 MSTORE PUSH1 0x20 ADD PUSH1 0x0 KECCAK256 SLOAD PUSH2 0x606 SWAP2 SWAP1 PUSH2 0xBA1 JUMP JUMPDEST SWAP1 POP TIMESTAMP PUSH1 0x2 DUP3 DUP2 SLOAD DUP2 LT PUSH2 0x61D JUMPI PUSH2 0x61C PUSH2 0xBD5 JUMP JUMPDEST JUMPDEST SWAP1 PUSH1 0x0 MSTORE PUSH1 0x20 PUSH1 0x0 KECCAK256 SWAP1 PUSH1 0x4 MUL ADD PUSH1 0x3 ADD SLOAD LT ISZERO PUSH2 0x676 JUMPI PUSH1 0x1 SLOAD TIMESTAMP PUSH2 0x643 SWAP2 SWAP1 PUSH2 0xB4B JUMP JUMPDEST PUSH1 0x2 DUP3 DUP2 SLOAD DUP2 LT PUSH2 0x657 JUMPI PUSH2 0x656 PUSH2 0xBD5 JUMP JUMPDEST JUMPDEST SWAP1 PUSH1 0x0 MSTORE PUSH1 0x20 PUSH1 0x0 KECCAK256 SWAP1 PUSH1 0x4 MUL ADD PUSH1 0x3 ADD DUP2 SWAP1 SSTORE POP PUSH2 0x675 CALLER PUSH2 0x3DB JUMP JUMPDEST JUMPDEST PUSH1 0x2 DUP2 DUP2 SLOAD DUP2 LT PUSH2 0x68A JUMPI PUSH2 0x689 PUSH2 0xBD5 JUMP JUMPDEST JUMPDEST SWAP1 PUSH1 0x0 MSTORE PUSH1 0x20 PUSH1 0x0 KECCAK256 SWAP1 PUSH1 0x4 MUL ADD PUSH1 0x3 ADD SLOAD TIMESTAMP PUSH2 0x6A7 SWAP2 SWAP1 PUSH2 0xBA1 JUMP JUMPDEST SWAP2 POP POP SWAP1 JUMP JUMPDEST PUSH2 0x6B5 PUSH2 0x8A5 JUMP JUMPDEST PUSH20 0xFFFFFFFFFFFFFFFFFFFFFFFFFFFFFFFFFFFFFFFF AND PUSH2 0x6D3 PUSH2 0x58E JUMP JUMPDEST PUSH20 0xFFFFFFFFFFFFFFFFFFFFFFFFFFFFFFFFFFFFFFFF AND EQ PUSH2 0x729 JUMPI PUSH1 0x40 MLOAD PUSH32 0x8C379A000000000000000000000000000000000000000000000000000000000 DUP2 MSTORE PUSH1 0x4 ADD PUSH2 0x720 SWAP1 PUSH2 0xD1B JUMP JUMPDEST PUSH1 0x40 MLOAD DUP1 SWAP2 SUB SWAP1 REVERT JUMPDEST PUSH1 0x0 PUSH20 0xFFFFFFFFFFFFFFFFFFFFFFFFFFFFFFFFFFFFFFFF AND DUP2 PUSH20 0xFFFFFFFFFFFFFFFFFFFFFFFFFFFFFFFFFFFFFFFF AND SUB PUSH2 0x798 JUMPI PUSH1 0x40 MLOAD PUSH32 0x8C379A000000000000000000000000000000000000000000000000000000000 DUP2 MSTORE PUSH1 0x4 ADD PUSH2 0x78F SWAP1 PUSH2 0xDAD JUMP JUMPDEST PUSH1 0x40 MLOAD DUP1 SWAP2 SUB SWAP1 REVERT JUMPDEST PUSH2 0x7A1 DUP2 PUSH2 0x8AD JUMP JUMPDEST POP JUMP JUMPDEST PUSH1 0x2 DUP2 DUP2 SLOAD DUP2 LT PUSH2 0x7B4 JUMPI PUSH1 0x0 DUP1 REVERT JUMPDEST SWAP1 PUSH1 0x0 MSTORE PUSH1 0x20 PUSH1 0x0 KECCAK256 SWAP1 PUSH1 0x4 MUL ADD PUSH1 0x0 SWAP2 POP SWAP1 POP DUP1 PUSH1 0x0 ADD SLOAD SWAP1 DUP1 PUSH1 0x1 ADD SLOAD SWAP1 DUP1 PUSH1 0x2 ADD PUSH1 0x0 SWAP1 SLOAD SWAP1 PUSH2 0x100 EXP SWAP1 DIV PUSH4 0xFFFFFFFF AND SWAP1 DUP1 PUSH1 0x3 ADD SLOAD SWAP1 POP DUP5 JUMP JUMPDEST PUSH1 0x0 DUP3 PUSH20 0xFFFFFFFFFFFFFFFFFFFFFFFFFFFFFFFFFFFFFFFF AND DUP3 PUSH1 0x40 MLOAD PUSH2 0x81A SWAP1 PUSH2 0xDFE JUMP JUMPDEST PUSH1 0x0 PUSH1 0x40 MLOAD DUP1 DUP4 SUB DUP2 DUP6 DUP8 GAS CALL SWAP3 POP POP POP RETURNDATASIZE DUP1 PUSH1 0x0 DUP2 EQ PUSH2 0x857 JUMPI PUSH1 0x40 MLOAD SWAP2 POP PUSH1 0x1F NOT PUSH1 0x3F RETURNDATASIZE ADD AND DUP3 ADD PUSH1 0x40 MSTORE RETURNDATASIZE DUP3 MSTORE RETURNDATASIZE PUSH1 0x0 PUSH1 0x20 DUP5 ADD RETURNDATACOPY PUSH2 0x85C JUMP JUMPDEST PUSH1 0x60 SWAP2 POP JUMPDEST POP POP SWAP1 POP DUP1 PUSH2 0x8A0 JUMPI PUSH1 0x40 MLOAD PUSH32 0x8C379A000000000000000000000000000000000000000000000000000000000 DUP2 MSTORE PUSH1 0x4 ADD PUSH2 0x897 SWAP1 PUSH2 0xE85 JUMP JUMPDEST PUSH1 0x40 MLOAD DUP1 SWAP2 SUB SWAP1 REVERT JUMPDEST POP POP POP JUMP JUMPDEST PUSH1 0x0 CALLER SWAP1 POP SWAP1 JUMP JUMPDEST PUSH1 0x0 DUP1 PUSH1 0x0 SWAP1 SLOAD SWAP1 PUSH2 0x100 EXP SWAP1 DIV PUSH20 0xFFFFFFFFFFFFFFFFFFFFFFFFFFFFFFFFFFFFFFFF AND SWAP1 POP DUP2 PUSH1 0x0 DUP1 PUSH2 0x100 EXP DUP2 SLOAD DUP2 PUSH20 0xFFFFFFFFFFFFFFFFFFFFFFFFFFFFFFFFFFFFFFFF MUL NOT AND SWAP1 DUP4 PUSH20 0xFFFFFFFFFFFFFFFFFFFFFFFFFFFFFFFFFFFFFFFF AND MUL OR SWAP1 SSTORE POP DUP2 PUSH20 0xFFFFFFFFFFFFFFFFFFFFFFFFFFFFFFFFFFFFFFFF AND DUP2 PUSH20 0xFFFFFFFFFFFFFFFFFFFFFFFFFFFFFFFFFFFFFFFF AND PUSH32 0x8BE0079C531659141344CD1FD0A4F28419497F9722A3DAAFE3B4186F6B6457E0 PUSH1 0x40 MLOAD PUSH1 0x40 MLOAD DUP1 SWAP2 SUB SWAP1 LOG3 POP POP JUMP JUMPDEST PUSH1 0x0 DUP1 REVERT JUMPDEST PUSH1 0x0 PUSH20 0xFFFFFFFFFFFFFFFFFFFFFFFFFFFFFFFFFFFFFFFF DUP3 AND SWAP1 POP SWAP2 SWAP1 POP JUMP JUMPDEST PUSH1 0x0 PUSH2 0x9A1 DUP3 PUSH2 0x976 JUMP JUMPDEST SWAP1 POP SWAP2 SWAP1 POP JUMP JUMPDEST PUSH2 0x9B1 DUP2 PUSH2 0x996 JUMP JUMPDEST DUP2 EQ PUSH2 0x9BC JUMPI PUSH1 0x0 DUP1 REVERT JUMPDEST POP JUMP JUMPDEST PUSH1 0x0 DUP2 CALLDATALOAD SWAP1 POP PUSH2 0x9CE DUP2 PUSH2 0x9A8 JUMP JUMPDEST SWAP3 SWAP2 POP POP JUMP JUMPDEST PUSH1 0x0 PUSH1 0x20 DUP3 DUP5 SUB SLT ISZERO PUSH2 0x9EA JUMPI PUSH2 0x9E9 PUSH2 0x971 JUMP JUMPDEST JUMPDEST PUSH1 0x0 PUSH2 0x9F8 DUP5 DUP3 DUP6 ADD PUSH2 0x9BF JUMP JUMPDEST SWAP2 POP POP SWAP3 SWAP2 POP POP JUMP JUMPDEST PUSH2 0xA0A DUP2 PUSH2 0x996 JUMP JUMPDEST DUP3 MSTORE POP POP JUMP JUMPDEST PUSH1 0x0 PUSH1 0x20 DUP3 ADD SWAP1 POP PUSH2 0xA25 PUSH1 0x0 DUP4 ADD DUP5 PUSH2 0xA01 JUMP JUMPDEST SWAP3 SWAP2 POP POP JUMP JUMPDEST PUSH1 0x0 DUP2 SWAP1 POP SWAP2 SWAP1 POP JUMP JUMPDEST PUSH2 0xA3E DUP2 PUSH2 0xA2B JUMP JUMPDEST DUP3 MSTORE POP POP JUMP JUMPDEST PUSH1 0x0 PUSH1 0x20 DUP3 ADD SWAP1 POP PUSH2 0xA59 PUSH1 0x0 DUP4 ADD DUP5 PUSH2 0xA35 JUMP JUMPDEST SWAP3 SWAP2 POP POP JUMP JUMPDEST PUSH2 0xA68 DUP2 PUSH2 0xA2B JUMP JUMPDEST DUP2 EQ PUSH2 0xA73 JUMPI PUSH1 0x0 DUP1 REVERT JUMPDEST POP JUMP JUMPDEST PUSH1 0x0 DUP2 CALLDATALOAD SWAP1 POP PUSH2 0xA85 DUP2 PUSH2 0xA5F JUMP JUMPDEST SWAP3 SWAP2 POP POP JUMP JUMPDEST PUSH1 0x0 PUSH1 0x20 DUP3 DUP5 SUB SLT ISZERO PUSH2 0xAA1 JUMPI PUSH2 0xAA0 PUSH2 0x971 JUMP JUMPDEST JUMPDEST PUSH1 0x0 PUSH2 0xAAF DUP5 DUP3 DUP6 ADD PUSH2 0xA76 JUMP JUMPDEST SWAP2 POP POP SWAP3 SWAP2 POP POP JUMP JUMPDEST PUSH1 0x0 PUSH4 0xFFFFFFFF DUP3 AND SWAP1 POP SWAP2 SWAP1 POP JUMP JUMPDEST PUSH2 0xAD1 DUP2 PUSH2 0xAB8 JUMP JUMPDEST DUP3 MSTORE POP POP JUMP JUMPDEST PUSH1 0x0 PUSH1 0x80 DUP3 ADD SWAP1 POP PUSH2 0xAEC PUSH1 0x0 DUP4 ADD DUP8 PUSH2 0xA35 JUMP JUMPDEST PUSH2 0xAF9 PUSH1 0x20 DUP4 ADD DUP7 PUSH2 0xA35 JUMP JUMPDEST PUSH2 0xB06 PUSH1 0x40 DUP4 ADD DUP6 PUSH2 0xAC8 JUMP JUMPDEST PUSH2 0xB13 PUSH1 0x60 DUP4 ADD DUP5 PUSH2 0xA35 JUMP JUMPDEST SWAP6 SWAP5 POP POP POP POP POP JUMP JUMPDEST PUSH32 0x4E487B7100000000000000000000000000000000000000000000000000000000 PUSH1 0x0 MSTORE PUSH1 0x11 PUSH1 0x4 MSTORE PUSH1 0x24 PUSH1 0x0 REVERT JUMPDEST PUSH1 0x0 PUSH2 0xB56 DUP3 PUSH2 0xA2B JUMP JUMPDEST SWAP2 POP PUSH2 0xB61 DUP4 PUSH2 0xA2B JUMP JUMPDEST SWAP3 POP DUP3 PUSH32 0xFFFFFFFFFFFFFFFFFFFFFFFFFFFFFFFFFFFFFFFFFFFFFFFFFFFFFFFFFFFFFFFF SUB DUP3 GT ISZERO PUSH2 0xB96 JUMPI PUSH2 0xB95 PUSH2 0xB1C JUMP JUMPDEST JUMPDEST DUP3 DUP3 ADD SWAP1 POP SWAP3 SWAP2 POP POP JUMP JUMPDEST PUSH1 0x0 PUSH2 0xBAC DUP3 PUSH2 0xA2B JUMP JUMPDEST SWAP2 POP PUSH2 0xBB7 DUP4 PUSH2 0xA2B JUMP JUMPDEST SWAP3 POP DUP3 DUP3 LT ISZERO PUSH2 0xBCA JUMPI PUSH2 0xBC9 PUSH2 0xB1C JUMP JUMPDEST JUMPDEST DUP3 DUP3 SUB SWAP1 POP SWAP3 SWAP2 POP POP JUMP JUMPDEST PUSH32 0x4E487B7100000000000000000000000000000000000000000000000000000000 PUSH1 0x0 MSTORE PUSH1 0x32 PUSH1 0x4 MSTORE PUSH1 0x24 PUSH1 0x0 REVERT JUMPDEST PUSH1 0x0 PUSH2 0xC0F DUP3 PUSH2 0xA2B JUMP JUMPDEST SWAP2 POP PUSH2 0xC1A DUP4 PUSH2 0xA2B JUMP JUMPDEST SWAP3 POP DUP2 PUSH32 0xFFFFFFFFFFFFFFFFFFFFFFFFFFFFFFFFFFFFFFFFFFFFFFFFFFFFFFFFFFFFFFFF DIV DUP4 GT DUP3 ISZERO ISZERO AND ISZERO PUSH2 0xC53 JUMPI PUSH2 0xC52 PUSH2 0xB1C JUMP JUMPDEST JUMPDEST DUP3 DUP3 MUL SWAP1 POP SWAP3 SWAP2 POP POP JUMP JUMPDEST PUSH32 0x4E487B7100000000000000000000000000000000000000000000000000000000 PUSH1 0x0 MSTORE PUSH1 0x12 PUSH1 0x4 MSTORE PUSH1 0x24 PUSH1 0x0 REVERT JUMPDEST PUSH1 0x0 PUSH2 0xC98 DUP3 PUSH2 0xA2B JUMP JUMPDEST SWAP2 POP PUSH2 0xCA3 DUP4 PUSH2 0xA2B JUMP JUMPDEST SWAP3 POP DUP3 PUSH2 0xCB3 JUMPI PUSH2 0xCB2 PUSH2 0xC5E JUMP JUMPDEST JUMPDEST DUP3 DUP3 DIV SWAP1 POP SWAP3 SWAP2 POP POP JUMP JUMPDEST PUSH1 0x0 DUP3 DUP3 MSTORE PUSH1 0x20 DUP3 ADD SWAP1 POP SWAP3 SWAP2 POP POP JUMP JUMPDEST PUSH32 0x4F776E61626C653A2063616C6C6572206973206E6F7420746865206F776E6572 PUSH1 0x0 DUP3 ADD MSTORE POP JUMP JUMPDEST PUSH1 0x0 PUSH2 0xD05 PUSH1 0x20 DUP4 PUSH2 0xCBE JUMP JUMPDEST SWAP2 POP PUSH2 0xD10 DUP3 PUSH2 0xCCF JUMP JUMPDEST PUSH1 0x20 DUP3 ADD SWAP1 POP SWAP2 SWAP1 POP JUMP JUMPDEST PUSH1 0x0 PUSH1 0x20 DUP3 ADD SWAP1 POP DUP2 DUP2 SUB PUSH1 0x0 DUP4 ADD MSTORE PUSH2 0xD34 DUP2 PUSH2 0xCF8 JUMP JUMPDEST SWAP1 POP SWAP2 SWAP1 POP JUMP JUMPDEST PUSH32 0x4F776E61626C653A206E6577206F776E657220697320746865207A65726F2061 PUSH1 0x0 DUP3 ADD MSTORE PUSH32 0x6464726573730000000000000000000000000000000000000000000000000000 PUSH1 0x20 DUP3 ADD MSTORE POP JUMP JUMPDEST PUSH1 0x0 PUSH2 0xD97 PUSH1 0x26 DUP4 PUSH2 0xCBE JUMP JUMPDEST SWAP2 POP PUSH2 0xDA2 DUP3 PUSH2 0xD3B JUMP JUMPDEST PUSH1 0x40 DUP3 ADD SWAP1 POP SWAP2 SWAP1 POP JUMP JUMPDEST PUSH1 0x0 PUSH1 0x20 DUP3 ADD SWAP1 POP DUP2 DUP2 SUB PUSH1 0x0 DUP4 ADD MSTORE PUSH2 0xDC6 DUP2 PUSH2 0xD8A JUMP JUMPDEST SWAP1 POP SWAP2 SWAP1 POP JUMP JUMPDEST PUSH1 0x0 DUP2 SWAP1 POP SWAP3 SWAP2 POP POP JUMP JUMPDEST POP JUMP JUMPDEST PUSH1 0x0 PUSH2 0xDE8 PUSH1 0x0 DUP4 PUSH2 0xDCD JUMP JUMPDEST SWAP2 POP PUSH2 0xDF3 DUP3 PUSH2 0xDD8 JUMP JUMPDEST PUSH1 0x0 DUP3 ADD SWAP1 POP SWAP2 SWAP1 POP JUMP JUMPDEST PUSH1 0x0 PUSH2 0xE09 DUP3 PUSH2 0xDDB JUMP JUMPDEST SWAP2 POP DUP2 SWAP1 POP SWAP2 SWAP1 POP JUMP JUMPDEST PUSH32 0x5472616E7366657248656C7065723A20424E425F5452414E534645525F464149 PUSH1 0x0 DUP3 ADD MSTORE PUSH32 0x4C45440000000000000000000000000000000000000000000000000000000000 PUSH1 0x20 DUP3 ADD MSTORE POP JUMP JUMPDEST PUSH1 0x0 PUSH2 0xE6F PUSH1 0x23 DUP4 PUSH2 0xCBE JUMP JUMPDEST SWAP2 POP PUSH2 0xE7A DUP3 PUSH2 0xE13 JUMP JUMPDEST PUSH1 0x40 DUP3 ADD SWAP1 POP SWAP2 SWAP1 POP JUMP JUMPDEST PUSH1 0x0 PUSH1 0x20 DUP3 ADD SWAP1 POP DUP2 DUP2 SUB PUSH1 0x0 DUP4 ADD MSTORE PUSH2 0xE9E DUP2 PUSH2 0xE62 JUMP JUMPDEST SWAP1 POP SWAP2 SWAP1 POP JUMP INVALID LOG2 PUSH5 0x6970667358 0x22 SLT KECCAK256 PUSH17 0xBD7A900C1E6664EFDC8DFAA87C913E60C0 PUSH32 0xBCD26018F4DECFACD83A0EF4A964736F6C634300080E00330000000000000000 "
				},
				"gasEstimates": {
					"creation": {
						"codeDepositCost": "760600",
						"executionCost": "infinite",
						"totalCost": "infinite"
					},
					"external": {
						"owner()": "2522",
						"remainedTime()": "infinite",
						"renounceOwnership()": "30419",
						"stake()": "infinite",
						"stakers(uint256)": "infinite",
						"transferOwnership(address)": "30764",
						"withdraw(address)": "infinite"
					},
					"internal": {
						"_safeTransferBNB(address,uint256)": "infinite"
					}
				},
				"methodIdentifiers": {
					"owner()": "8da5cb5b",
					"remainedTime()": "b3743586",
					"renounceOwnership()": "715018a6",
					"stake()": "3a4b66f1",
					"stakers(uint256)": "fd5e6dd1",
					"transferOwnership(address)": "f2fde38b",
					"withdraw(address)": "51cff8d9"
				}
			},
			"storageLayout": {
				"storage": [
					{
						"astId": 7,
						"contract": "Maxim/BStakeSystem.sol:BStakeSystem",
						"label": "_owner",
						"offset": 0,
						"slot": "0",
						"type": "t_address"
					},
					{
						"astId": 165,
						"contract": "Maxim/BStakeSystem.sol:BStakeSystem",
						"label": "cooldownTime",
						"offset": 0,
						"slot": "1",
						"type": "t_uint256"
					},
					{
						"astId": 169,
						"contract": "Maxim/BStakeSystem.sol:BStakeSystem",
						"label": "stakers",
						"offset": 0,
						"slot": "2",
						"type": "t_array(t_struct(Stake_t)162_storage)dyn_storage"
					},
					{
						"astId": 173,
						"contract": "Maxim/BStakeSystem.sol:BStakeSystem",
						"label": "_userDetail",
						"offset": 0,
						"slot": "3",
						"type": "t_mapping(t_address,t_uint256)"
					}
				],
				"types": {
					"t_address": {
						"encoding": "inplace",
						"label": "address",
						"numberOfBytes": "20"
					},
					"t_array(t_struct(Stake_t)162_storage)dyn_storage": {
						"base": "t_struct(Stake_t)162_storage",
						"encoding": "dynamic_array",
						"label": "struct BStakeSystem.Stake_t[]",
						"numberOfBytes": "32"
					},
					"t_mapping(t_address,t_uint256)": {
						"encoding": "mapping",
						"key": "t_address",
						"label": "mapping(address => uint256)",
						"numberOfBytes": "32",
						"value": "t_uint256"
					},
					"t_struct(Stake_t)162_storage": {
						"encoding": "inplace",
						"label": "struct BStakeSystem.Stake_t",
						"members": [
							{
								"astId": 155,
								"contract": "Maxim/BStakeSystem.sol:BStakeSystem",
								"label": "stakedAmount",
								"offset": 0,
								"slot": "0",
								"type": "t_uint256"
							},
							{
								"astId": 157,
								"contract": "Maxim/BStakeSystem.sol:BStakeSystem",
								"label": "totalRewardAmount",
								"offset": 0,
								"slot": "1",
								"type": "t_uint256"
							},
							{
								"astId": 159,
								"contract": "Maxim/BStakeSystem.sol:BStakeSystem",
								"label": "level",
								"offset": 0,
								"slot": "2",
								"type": "t_uint32"
							},
							{
								"astId": 161,
								"contract": "Maxim/BStakeSystem.sol:BStakeSystem",
								"label": "rewardTime",
								"offset": 0,
								"slot": "3",
								"type": "t_uint256"
							}
						],
						"numberOfBytes": "128"
					},
					"t_uint256": {
						"encoding": "inplace",
						"label": "uint256",
						"numberOfBytes": "32"
					},
					"t_uint32": {
						"encoding": "inplace",
						"label": "uint32",
						"numberOfBytes": "4"
					}
				}
			},
			"userdoc": {
				"kind": "user",
				"methods": {},
				"version": 1
			}
		}
	}
}